{
  "_format": "hh-sol-artifact-1",
  "contractName": "AccessControl",
  "sourceName": "contracts/access.sol",
  "abi": [
    {
      "inputs": [
        {
          "internalType": "address",
          "name": "_disclosure",
          "type": "address"
        }
      ],
      "stateMutability": "nonpayable",
      "type": "constructor"
    },
    {
      "inputs": [],
      "name": "AutoConfigUnavailable",
      "type": "error"
    },
    {
      "inputs": [],
      "name": "MissingRemoteAddr",
      "type": "error"
    },
    {
      "inputs": [],
      "name": "MissingRemoteChainId",
      "type": "error"
    },
    {
      "inputs": [],
      "name": "NotMessageBus",
      "type": "error"
    },
    {
      "inputs": [],
      "name": "NotRemoteEndpoint",
      "type": "error"
    },
    {
      "inputs": [],
      "name": "ReceiverError",
      "type": "error"
    },
    {
      "inputs": [],
      "name": "SelfCallDisallowed",
      "type": "error"
    },
    {
      "inputs": [
        {
          "internalType": "uint256",
          "name": "expected",
          "type": "uint256"
        },
        {
          "internalType": "uint256",
          "name": "got",
          "type": "uint256"
        }
      ],
      "name": "WrongSeqNum",
      "type": "error"
    },
    {
      "inputs": [],
      "name": "ACCESS_CREDIT_SCORE",
      "outputs": [
        {
          "internalType": "AccessControl.Access",
          "name": "",
          "type": "uint256"
        }
      ],
      "stateMutability": "view",
      "type": "function"
    },
    {
      "inputs": [],
      "name": "ACCESS_FULL_CREDIT_REPORT",
      "outputs": [
        {
          "internalType": "AccessControl.Access",
          "name": "",
          "type": "uint256"
        }
      ],
      "stateMutability": "view",
      "type": "function"
    },
    {
      "inputs": [
        {
          "internalType": "address",
          "name": "_sender",
          "type": "address"
        },
        {
          "internalType": "uint64",
          "name": "_senderChainId",
          "type": "uint64"
        },
        {
          "internalType": "bytes",
          "name": "_message",
          "type": "bytes"
        },
        {
          "internalType": "address",
          "name": "",
          "type": "address"
        }
      ],
      "name": "executeMessage",
      "outputs": [
        {
          "internalType": "uint256",
          "name": "",
          "type": "uint256"
        }
      ],
      "stateMutability": "payable",
      "type": "function"
    },
    {
      "inputs": [
        {
          "internalType": "address",
          "name": "_whom",
          "type": "address"
        },
        {
          "internalType": "AccessControl.Access",
          "name": "_access",
          "type": "uint256"
        }
      ],
      "name": "grantAccess",
      "outputs": [],
      "stateMutability": "payable",
      "type": "function"
    },
    {
      "inputs": [
        {
          "internalType": "address",
          "name": "_whom",
          "type": "address"
        }
      ],
      "name": "revokeAccess",
      "outputs": [],
      "stateMutability": "payable",
      "type": "function"
    }
  ],
  "bytecode": "0x60c06040523480156200001157600080fd5b5060405162001fe438038062001fe4833981810160405281019062000037919062000d7d565b80806200006a7f73617070686972650000000000000000000000000000000000000000000000006200021b60201b60201c565b816200007c826200059260201b60201c565b6200008e8484620005de60201b60201c565b60008073ffffffffffffffffffffffffffffffffffffffff168473ffffffffffffffffffffffffffffffffffffffff1603620000f6576040517f5f9997df00000000000000000000000000000000000000000000000000000000815260040160405180910390fd5b6000830362000131576040517fa9e2223000000000000000000000000000000000000000000000000000000000815260040160405180910390fd5b836000806101000a81548173ffffffffffffffffffffffffffffffffffffffff021916908373ffffffffffffffffffffffffffffffffffffffff160217905550826001819055508173ffffffffffffffffffffffffffffffffffffffff1660808173ffffffffffffffffffffffffffffffffffffffff168152505080151560a081151581525050620001c86200063260201b60201c565b158015620001d557504683145b156200020d576040517fdbf02d7c00000000000000000000000000000000000000000000000000000000815260040160405180910390fd5b505050505050505062000daf565b60006105394614806200022f5750617a6946145b156200025e577f6c6f63616c00000000000000000000000000000000000000000000000000000090506200058d565b600062000271466200069960201b60201c565b91505080156200053d577f657468657265756d0000000000000000000000000000000000000000000000008303620002cd577f676f65726c6900000000000000000000000000000000000000000000000000009150506200058d565b7f627363000000000000000000000000000000000000000000000000000000000083036200031f577f6273632d746573746e65740000000000000000000000000000000000000000009150506200058d565b7f706f6c79676f6e00000000000000000000000000000000000000000000000000830362000371577f706f6c79676f6e2d6d756d6261690000000000000000000000000000000000009150506200058d565b7f66616e746f6d00000000000000000000000000000000000000000000000000008303620003c3577f66616e746f6d2d746573746e65740000000000000000000000000000000000009150506200058d565b7f7361707068697265000000000000000000000000000000000000000000000000830362000415577f73617070686972652d746573746e6574000000000000000000000000000000009150506200058d565b7f617262697472756d2d6f6e650000000000000000000000000000000000000000830362000467577f617262697472756d2d746573746e6574000000000000000000000000000000009150506200058d565b7f617262697472756d2d6e6f7661000000000000000000000000000000000000008303620004b9577f617262697472756d2d746573746e6574000000000000000000000000000000009150506200058d565b7f6176616c616e636865000000000000000000000000000000000000000000000083036200050b577f6176616c616e6368652d66756a690000000000000000000000000000000000009150506200058d565b6040517f11e9f92400000000000000000000000000000000000000000000000000000000815260040160405180910390fd5b60006200055084620009a960201b60201c565b0362000588576040517f11e9f92400000000000000000000000000000000000000000000000000000000815260040160405180910390fd5b829150505b919050565b60007f6c6f63616c0000000000000000000000000000000000000000000000000000008203620005c557469050620005d9565b620005d682620009a960201b60201c565b90505b919050565b60007f6c6f63616c000000000000000000000000000000000000000000000000000000820362000611578290506200062c565b600062000624466200069960201b60201c565b509050809150505b92915050565b60008060009054906101000a900473ffffffffffffffffffffffffffffffffffffffff1673ffffffffffffffffffffffffffffffffffffffff1660805173ffffffffffffffffffffffffffffffffffffffff1614801562000694575060015446145b905090565b60008060018303620006c657734066d196a423b2b3b8b054f4f40efb47a74e200c600091509150620009a4565b60058303620006f05773f25170f86e4291a99a9a560032fe9948b8bcfbb2600191509150620009a4565b600a83036200071a57730d71d18126e03646eb09fec929e2ae87b7cae69d600091509150620009a4565b6038830362000744577395714818fdd7a5454f73da9c777b3ee6ebaeea6b600091509150620009a4565b606183036200076e5773ad204986d6cb67a5bc76a3cb8974823f43cb9aaa600191509150620009a4565b60898303620007985773afdb9c40c7144022811f034ee07ce2e110093fe6600091509150620009a4565b60fa8303620007c25773ff4e183a0ceb4fa98e63bbf8077b929c8e5a2ba4600091509150620009a4565b610fa28303620007ed5773b92d6933a024bcca9a21669a480c236cbc973110600191509150620009a4565b6105058303620008185773940daaba3f713abfabd79cdd991466fe698cbe54600091509150620009a4565b615afe83036200084357739bb46d5100d2db4608112026951c9c965b233f4d600091509150620009a4565b615aff83036200086e57739bb46d5100d2db4608112026951c9c965b233f4d600191509150620009a4565b61a4b183036200089957733ad9d0648cdaa2426331e894e980d0a5ed16257f600091509150620009a4565b61a4ba8303620008c45773f5c6825015280cdfd0b56903f9f8b5a2233476f5600091509150620009a4565b61a8698303620008ef5773e9533976c590200e32d95c53f06ae12d292cfc47600191509150620009a4565b61a86a83036200091a57735a926eeeafc4d217add17e9641e8ce23cd01ad57600091509150620009a4565b6201388183036200094657737d43aabc515c356145049227cee54b608342c0ad600191509150620009a4565b62066eeb83036200097257737d43aabc515c356145049227cee54b608342c0ad600191509150620009a4565b6040517f11e9f92400000000000000000000000000000000000000000000000000000000815260040160405180910390fd5b915091565b60007f657468657265756d0000000000000000000000000000000000000000000000008203620009dd576001905062000d0e565b7f676f65726c690000000000000000000000000000000000000000000000000000820362000a0f576005905062000d0e565b7f6f7074696d69736d000000000000000000000000000000000000000000000000820362000a4157600a905062000d0e565b7f6273630000000000000000000000000000000000000000000000000000000000820362000a73576038905062000d0e565b7f6273632d746573746e6574000000000000000000000000000000000000000000820362000aa5576061905062000d0e565b7f706f6c79676f6e00000000000000000000000000000000000000000000000000820362000ad7576089905062000d0e565b7f66616e746f6d0000000000000000000000000000000000000000000000000000820362000b095760fa905062000d0e565b7f66616e746f6d2d746573746e6574000000000000000000000000000000000000820362000b3c57610fa2905062000d0e565b7f6d6f6f6e72697665720000000000000000000000000000000000000000000000820362000b6f57610505905062000d0e565b7f617262697472756d2d6f6e650000000000000000000000000000000000000000820362000ba25761a4b1905062000d0e565b7f617262697472756d2d6e6f766100000000000000000000000000000000000000820362000bd55761a4ba905062000d0e565b7f7361707068697265000000000000000000000000000000000000000000000000820362000c0857615afe905062000d0e565b7f73617070686972652d746573746e657400000000000000000000000000000000820362000c3b57615aff905062000d0e565b7f706f6c79676f6e2d6d756d626169000000000000000000000000000000000000820362000c6f5762013881905062000d0e565b7f6176616c616e6368650000000000000000000000000000000000000000000000820362000ca25761a86a905062000d0e565b7f6176616c616e6368652d66756a69000000000000000000000000000000000000820362000cd55761a931905062000d0e565b7f617262697472756d2d746573746e657400000000000000000000000000000000820362000d095762066eeb905062000d0e565b600090505b919050565b600080fd5b600073ffffffffffffffffffffffffffffffffffffffff82169050919050565b600062000d458262000d18565b9050919050565b62000d578162000d38565b811462000d6357600080fd5b50565b60008151905062000d778162000d4c565b92915050565b60006020828403121562000d965762000d9562000d13565b5b600062000da68482850162000d66565b91505092915050565b60805160a0516111ec62000df860003960006103070152600081816101810152818161059c015281816106d2015281816107c001528181610853015261093f01526111ec6000f3fe60806040526004361061004a5760003560e01c80634f11ce911461004f57806385e685311461007a5780639c649fdf146100965780639df89256146100c6578063bc25aa2f146100e2575b600080fd5b34801561005b57600080fd5b5061006461010d565b60405161007191906109d6565b60405180910390f35b610094600480360381019061008f9190610a59565b610112565b005b6100b060048036038101906100ab9190610b2b565b61017d565b6040516100bd9190610bc2565b60405180910390f35b6100e060048036038101906100db9190610c09565b6104d0565b005b3480156100ee57600080fd5b506100f761053e565b60405161010491906109d6565b60405180910390f35b600281565b6101796040518060400160405280600c81526020017f7265766f6b654163636573730000000000000000000000000000000000000000815250610153610543565b83604051602001610165929190610c58565b60405160208183030381529060405261054b565b5050565b60007f000000000000000000000000000000000000000000000000000000000000000073ffffffffffffffffffffffffffffffffffffffff163373ffffffffffffffffffffffffffffffffffffffff1614610204576040517f663f343200000000000000000000000000000000000000000000000000000000815260040160405180910390fd5b60008054906101000a900473ffffffffffffffffffffffffffffffffffffffff1673ffffffffffffffffffffffffffffffffffffffff168673ffffffffffffffffffffffffffffffffffffffff1614158061026b57506001548567ffffffffffffffff1614155b156102a2576040517f6e3ae14500000000000000000000000000000000000000000000000000000000815260040160405180910390fd5b600084846000906004926102b893929190610c8b565b906102c39190610d0a565b9050600085856004906024926102db93929190610c8b565b906102e69190610d73565b60001c90503660008787602490809261030193929190610c8b565b915091507f00000000000000000000000000000000000000000000000000000000000000001561038c57600454831461037557600454836040517fd0257bb100000000000000000000000000000000000000000000000000000000815260040161036c929190610dd2565b60405180910390fd5b60046000815461038490610e2a565b919050819055505b61098760026000867bffffffffffffffffffffffffffffffffffffffffffffffffffffffff1916815260200190815260200160002060009054906101000a90048015610987021767ffffffffffffffff16905060008115905060006104428585600260008b7bffffffffffffffffffffffffffffffffffffffffffffffffffffffff1916815260200190815260200160002060009054906101000a90048015610987021767ffffffffffffffff1663ffffffff16565b90506001600281111561045857610457610e72565b5b81600281111561046b5761046a610e72565b5b036104805760029750505050505050506104c7565b60028081111561049357610492610e72565b5b8160028111156104a6576104a5610e72565b5b036104bb5760019750505050505050506104c7565b60009750505050505050505b95945050505050565b6105396040518060400160405280600b81526020017f6772616e74416363657373000000000000000000000000000000000000000000815250610511610543565b848460405160200161052593929190610ea1565b60405160208183030381529060405261054b565b505050565b600181565b600033905090565b60008083805190602001206003548460405160200161056c93929190610f8b565b6040516020818303038152906040529050600061058982516107a4565b9050610593610903565b156106d05760007f000000000000000000000000000000000000000000000000000000000000000073ffffffffffffffffffffffffffffffffffffffff16639c649fdf304686306040518563ffffffff1660e01b81526004016105f9949392919061102e565b6020604051808303816000875af1158015610618573d6000803e3d6000fd5b505050506040513d601f19601f8201168201806040525081019061063c91906110a6565b905060018114610678576040517fee4f4da800000000000000000000000000000000000000000000000000000000815260040160405180910390fd5b60008211156106ca57600073ffffffffffffffffffffffffffffffffffffffff166108fc839081150290604051600060405180830381858888f193505050501580156106c8573d6000803e3d6000fd5b505b50610783565b7f000000000000000000000000000000000000000000000000000000000000000073ffffffffffffffffffffffffffffffffffffffff16639f3ce55a8260008054906101000a900473ffffffffffffffffffffffffffffffffffffffff16600154866040518563ffffffff1660e01b8152600401610750939291906110d3565b6000604051808303818588803b15801561076957600080fd5b505af115801561077d573d6000803e3d6000fd5b50505050505b60036000815461079290610e2a565b91905081905550809250505092915050565b60006107ae610903565b156107bc57600090506108fe565b60007f000000000000000000000000000000000000000000000000000000000000000073ffffffffffffffffffffffffffffffffffffffff166395e911a86040518163ffffffff1660e01b8152600401602060405180830381865afa158015610829573d6000803e3d6000fd5b505050506040513d601f19601f8201168201806040525081019061084d91906110a6565b905060007f000000000000000000000000000000000000000000000000000000000000000073ffffffffffffffffffffffffffffffffffffffff1663f60bbe2a6040518163ffffffff1660e01b8152600401602060405180830381865afa1580156108bc573d6000803e3d6000fd5b505050506040513d601f19601f820116820180604052508101906108e091906110a6565b905080846108ee9190611111565b826108f99190611153565b925050505b919050565b60008060009054906101000a900473ffffffffffffffffffffffffffffffffffffffff1673ffffffffffffffffffffffffffffffffffffffff167f000000000000000000000000000000000000000000000000000000000000000073ffffffffffffffffffffffffffffffffffffffff16148015610982575060015446145b905090565b61098f611187565b565b6000819050919050565b6000819050919050565b60006109c06109bb6109b684610991565b61099b565b610991565b9050919050565b6109d0816109a5565b82525050565b60006020820190506109eb60008301846109c7565b92915050565b600080fd5b600080fd5b600073ffffffffffffffffffffffffffffffffffffffff82169050919050565b6000610a26826109fb565b9050919050565b610a3681610a1b565b8114610a4157600080fd5b50565b600081359050610a5381610a2d565b92915050565b600060208284031215610a6f57610a6e6109f1565b5b6000610a7d84828501610a44565b91505092915050565b600067ffffffffffffffff82169050919050565b610aa381610a86565b8114610aae57600080fd5b50565b600081359050610ac081610a9a565b92915050565b600080fd5b600080fd5b600080fd5b60008083601f840112610aeb57610aea610ac6565b5b8235905067ffffffffffffffff811115610b0857610b07610acb565b5b602083019150836001820283011115610b2457610b23610ad0565b5b9250929050565b600080600080600060808688031215610b4757610b466109f1565b5b6000610b5588828901610a44565b9550506020610b6688828901610ab1565b945050604086013567ffffffffffffffff811115610b8757610b866109f6565b5b610b9388828901610ad5565b93509350506060610ba688828901610a44565b9150509295509295909350565b610bbc81610991565b82525050565b6000602082019050610bd76000830184610bb3565b92915050565b610be681610991565b8114610bf157600080fd5b50565b600081359050610c0381610bdd565b92915050565b60008060408385031215610c2057610c1f6109f1565b5b6000610c2e85828601610a44565b9250506020610c3f85828601610bf4565b9150509250929050565b610c5281610a1b565b82525050565b6000604082019050610c6d6000830185610c49565b610c7a6020830184610c49565b9392505050565b600080fd5b600080fd5b60008085851115610c9f57610c9e610c81565b5b83861115610cb057610caf610c86565b5b6001850283019150848603905094509492505050565b600082905092915050565b60007fffffffff0000000000000000000000000000000000000000000000000000000082169050919050565b600082821b905092915050565b6000610d168383610cc6565b82610d218135610cd1565b92506004821015610d6157610d5c7fffffffff0000000000000000000000000000000000000000000000000000000083600403600802610cfd565b831692505b505092915050565b6000819050919050565b6000610d7f8383610cc6565b82610d8a8135610d69565b92506020821015610dca57610dc57fffffffffffffffffffffffffffffffffffffffffffffffffffffffffffffffff83602003600802610cfd565b831692505b505092915050565b6000604082019050610de76000830185610bb3565b610df46020830184610bb3565b9392505050565b7f4e487b7100000000000000000000000000000000000000000000000000000000600052601160045260246000fd5b6000610e3582610991565b91507fffffffffffffffffffffffffffffffffffffffffffffffffffffffffffffffff8203610e6757610e66610dfb565b5b600182019050919050565b7f4e487b7100000000000000000000000000000000000000000000000000000000600052602160045260246000fd5b6000606082019050610eb66000830186610c49565b610ec36020830185610c49565b610ed060408301846109c7565b949350505050565b6000819050919050565b610ef3610eee82610cd1565b610ed8565b82525050565b6000819050919050565b610f14610f0f82610991565b610ef9565b82525050565b600081519050919050565b600081905092915050565b60005b83811015610f4e578082015181840152602081019050610f33565b60008484015250505050565b6000610f6582610f1a565b610f6f8185610f25565b9350610f7f818560208601610f30565b80840191505092915050565b6000610f978286610ee2565b600482019150610fa78285610f03565b602082019150610fb78284610f5a565b9150819050949350505050565b610fcd81610a86565b82525050565b600082825260208201905092915050565b6000601f19601f8301169050919050565b600061100082610f1a565b61100a8185610fd3565b935061101a818560208601610f30565b61102381610fe4565b840191505092915050565b60006080820190506110436000830187610c49565b6110506020830186610fc4565b81810360408301526110628185610ff5565b90506110716060830184610c49565b95945050505050565b61108381610991565b811461108e57600080fd5b50565b6000815190506110a08161107a565b92915050565b6000602082840312156110bc576110bb6109f1565b5b60006110ca84828501611091565b91505092915050565b60006060820190506110e86000830186610c49565b6110f56020830185610bb3565b81810360408301526111078184610ff5565b9050949350505050565b600061111c82610991565b915061112783610991565b925082820261113581610991565b9150828204841483151761114c5761114b610dfb565b5b5092915050565b600061115e82610991565b915061116983610991565b925082820190508082111561118157611180610dfb565b5b92915050565b7f4e487b7100000000000000000000000000000000000000000000000000000000600052605160045260246000fdfea264697066735822122049ece76371aa6be1cc8d0455cd7f1b2cbe5052b0089cea80768afca7ce6c106564736f6c63430008110033",
  "linkReferences": {},
  "deployedLinkReferences": {}
}