{
  "_format": "hh-sol-artifact-1",
  "contractName": "CreditSBTv1",
  "sourceName": "contracts/sbt.sol",
  "abi": [
    {
      "inputs": [
        {
          "internalType": "address",
          "name": "endpoint",
          "type": "address"
        }
      ],
      "stateMutability": "nonpayable",
      "type": "constructor"
    },
    {
      "anonymous": false,
      "inputs": [
        {
          "indexed": true,
          "internalType": "address",
          "name": "owner",
          "type": "address"
        },
        {
          "indexed": true,
          "internalType": "address",
          "name": "approved",
          "type": "address"
        },
        {
          "indexed": true,
          "internalType": "uint256",
          "name": "tokenId",
          "type": "uint256"
        }
      ],
      "name": "Approval",
      "type": "event"
    },
    {
      "anonymous": false,
      "inputs": [
        {
          "indexed": true,
          "internalType": "address",
          "name": "owner",
          "type": "address"
        },
        {
          "indexed": true,
          "internalType": "address",
          "name": "operator",
          "type": "address"
        },
        {
          "indexed": false,
          "internalType": "bool",
          "name": "approved",
          "type": "bool"
        }
      ],
      "name": "ApprovalForAll",
      "type": "event"
    },
    {
      "anonymous": false,
      "inputs": [
        {
          "indexed": false,
          "internalType": "uint256",
          "name": "tokenId",
          "type": "uint256"
        }
      ],
      "name": "Locked",
      "type": "event"
    },
    {
      "anonymous": false,
      "inputs": [
        {
          "indexed": false,
          "internalType": "address",
          "name": "owner",
          "type": "address"
        },
        {
          "indexed": false,
          "internalType": "uint256",
          "name": "tokenId",
          "type": "uint256"
        }
      ],
      "name": "Minted",
      "type": "event"
    },
    {
      "anonymous": false,
      "inputs": [
        {
          "indexed": true,
          "internalType": "address",
          "name": "previousOwner",
          "type": "address"
        },
        {
          "indexed": true,
          "internalType": "address",
          "name": "newOwner",
          "type": "address"
        }
      ],
      "name": "OwnershipTransferred",
      "type": "event"
    },
    {
      "anonymous": false,
      "inputs": [
        {
          "indexed": false,
          "internalType": "address",
          "name": "owner",
          "type": "address"
        },
        {
          "indexed": false,
          "internalType": "uint256",
          "name": "tokenId",
          "type": "uint256"
        }
      ],
      "name": "Revoked",
      "type": "event"
    },
    {
      "anonymous": false,
      "inputs": [
        {
          "indexed": true,
          "internalType": "address",
          "name": "from",
          "type": "address"
        },
        {
          "indexed": true,
          "internalType": "address",
          "name": "to",
          "type": "address"
        },
        {
          "indexed": true,
          "internalType": "uint256",
          "name": "tokenId",
          "type": "uint256"
        }
      ],
      "name": "Transfer",
      "type": "event"
    },
    {
      "anonymous": false,
      "inputs": [
        {
          "indexed": false,
          "internalType": "uint256",
          "name": "tokenId",
          "type": "uint256"
        }
      ],
      "name": "Unlocked",
      "type": "event"
    },
    {
      "inputs": [
        {
          "internalType": "address",
          "name": "to",
          "type": "address"
        },
        {
          "internalType": "uint256",
          "name": "tokenId",
          "type": "uint256"
        }
      ],
      "name": "approve",
      "outputs": [],
      "stateMutability": "nonpayable",
      "type": "function"
    },
    {
      "inputs": [
        {
          "internalType": "address",
          "name": "owner",
          "type": "address"
        }
      ],
      "name": "balanceOf",
      "outputs": [
        {
          "internalType": "uint256",
          "name": "",
          "type": "uint256"
        }
      ],
      "stateMutability": "view",
      "type": "function"
    },
    {
      "inputs": [
        {
          "internalType": "uint256",
          "name": "tokenId",
          "type": "uint256"
        }
      ],
      "name": "burn",
      "outputs": [],
      "stateMutability": "nonpayable",
      "type": "function"
    },
    {
      "inputs": [],
      "name": "creditEndpoint",
      "outputs": [
        {
          "internalType": "contract CreditData",
          "name": "",
          "type": "address"
        }
      ],
      "stateMutability": "view",
      "type": "function"
    },
    {
      "inputs": [
        {
          "internalType": "uint256",
          "name": "tokenId",
          "type": "uint256"
        }
      ],
      "name": "getApproved",
      "outputs": [
        {
          "internalType": "address",
          "name": "",
          "type": "address"
        }
      ],
      "stateMutability": "view",
      "type": "function"
    },
    {
      "inputs": [
        {
          "internalType": "address",
          "name": "owner",
          "type": "address"
        }
      ],
      "name": "hasValid",
      "outputs": [
        {
          "internalType": "bool",
          "name": "",
          "type": "bool"
        }
      ],
      "stateMutability": "view",
      "type": "function"
    },
    {
      "inputs": [
        {
          "internalType": "address",
          "name": "owner",
          "type": "address"
        },
        {
          "internalType": "address",
          "name": "operator",
          "type": "address"
        }
      ],
      "name": "isApprovedForAll",
      "outputs": [
        {
          "internalType": "bool",
          "name": "",
          "type": "bool"
        }
      ],
      "stateMutability": "view",
      "type": "function"
    },
    {
      "inputs": [
        {
          "internalType": "uint256",
          "name": "tokenId",
          "type": "uint256"
        }
      ],
      "name": "isValid",
      "outputs": [
        {
          "internalType": "bool",
          "name": "",
          "type": "bool"
        }
      ],
      "stateMutability": "view",
      "type": "function"
    },
    {
      "inputs": [
        {
          "internalType": "uint256",
          "name": "",
          "type": "uint256"
        }
      ],
      "name": "locked",
      "outputs": [
        {
          "internalType": "bool",
          "name": "",
          "type": "bool"
        }
      ],
      "stateMutability": "pure",
      "type": "function"
    },
    {
      "inputs": [],
      "name": "name",
      "outputs": [
        {
          "internalType": "string",
          "name": "",
          "type": "string"
        }
      ],
      "stateMutability": "view",
      "type": "function"
    },
    {
      "inputs": [],
      "name": "owner",
      "outputs": [
        {
          "internalType": "address",
          "name": "",
          "type": "address"
        }
      ],
      "stateMutability": "view",
      "type": "function"
    },
    {
      "inputs": [
        {
          "internalType": "uint256",
          "name": "tokenId",
          "type": "uint256"
        }
      ],
      "name": "ownerOf",
      "outputs": [
        {
          "internalType": "address",
          "name": "",
          "type": "address"
        }
      ],
      "stateMutability": "view",
      "type": "function"
    },
    {
      "inputs": [
        {
          "internalType": "uint256",
          "name": "tokenId",
          "type": "uint256"
        }
      ],
      "name": "removeExpired",
      "outputs": [],
      "stateMutability": "nonpayable",
      "type": "function"
    },
    {
      "inputs": [],
      "name": "renounceOwnership",
      "outputs": [],
      "stateMutability": "nonpayable",
      "type": "function"
    },
    {
      "inputs": [
        {
          "internalType": "address",
          "name": "owner",
          "type": "address"
        },
        {
          "internalType": "uint256",
          "name": "tokenId",
          "type": "uint256"
        }
      ],
      "name": "revoke",
      "outputs": [],
      "stateMutability": "nonpayable",
      "type": "function"
    },
    {
      "inputs": [
        {
          "internalType": "address",
          "name": "to",
          "type": "address"
        }
      ],
      "name": "safeMint",
      "outputs": [
        {
          "internalType": "uint256",
          "name": "",
          "type": "uint256"
        }
      ],
      "stateMutability": "nonpayable",
      "type": "function"
    },
    {
      "inputs": [
        {
          "internalType": "address",
          "name": "from",
          "type": "address"
        },
        {
          "internalType": "address",
          "name": "to",
          "type": "address"
        },
        {
          "internalType": "uint256",
          "name": "tokenId",
          "type": "uint256"
        }
      ],
      "name": "safeTransferFrom",
      "outputs": [],
      "stateMutability": "nonpayable",
      "type": "function"
    },
    {
      "inputs": [
        {
          "internalType": "address",
          "name": "from",
          "type": "address"
        },
        {
          "internalType": "address",
          "name": "to",
          "type": "address"
        },
        {
          "internalType": "uint256",
          "name": "tokenId",
          "type": "uint256"
        },
        {
          "internalType": "bytes",
          "name": "data",
          "type": "bytes"
        }
      ],
      "name": "safeTransferFrom",
      "outputs": [],
      "stateMutability": "nonpayable",
      "type": "function"
    },
    {
      "inputs": [
        {
          "internalType": "uint256",
          "name": "tokenId",
          "type": "uint256"
        }
      ],
      "name": "scoreOf",
      "outputs": [
        {
          "internalType": "uint16",
          "name": "",
          "type": "uint16"
        }
      ],
      "stateMutability": "view",
      "type": "function"
    },
    {
      "inputs": [
        {
          "internalType": "uint256",
          "name": "tokenId",
          "type": "uint256"
        }
      ],
      "name": "selfBurn",
      "outputs": [],
      "stateMutability": "nonpayable",
      "type": "function"
    },
    {
      "inputs": [
        {
          "internalType": "address",
          "name": "operator",
          "type": "address"
        },
        {
          "internalType": "bool",
          "name": "approved",
          "type": "bool"
        }
      ],
      "name": "setApprovalForAll",
      "outputs": [],
      "stateMutability": "nonpayable",
      "type": "function"
    },
    {
      "inputs": [
        {
          "internalType": "bytes4",
          "name": "interfaceId",
          "type": "bytes4"
        }
      ],
      "name": "supportsInterface",
      "outputs": [
        {
          "internalType": "bool",
          "name": "",
          "type": "bool"
        }
      ],
      "stateMutability": "view",
      "type": "function"
    },
    {
      "inputs": [],
      "name": "symbol",
      "outputs": [
        {
          "internalType": "string",
          "name": "",
          "type": "string"
        }
      ],
      "stateMutability": "view",
      "type": "function"
    },
    {
      "inputs": [
        {
          "internalType": "uint256",
          "name": "tokenId",
          "type": "uint256"
        }
      ],
      "name": "tokenURI",
      "outputs": [
        {
          "internalType": "string",
          "name": "",
          "type": "string"
        }
      ],
      "stateMutability": "view",
      "type": "function"
    },
    {
      "inputs": [
        {
          "internalType": "address",
          "name": "from",
          "type": "address"
        },
        {
          "internalType": "address",
          "name": "to",
          "type": "address"
        },
        {
          "internalType": "uint256",
          "name": "tokenId",
          "type": "uint256"
        }
      ],
      "name": "transferFrom",
      "outputs": [],
      "stateMutability": "nonpayable",
      "type": "function"
    },
    {
      "inputs": [
        {
          "internalType": "address",
          "name": "newOwner",
          "type": "address"
        }
      ],
      "name": "transferOwnership",
      "outputs": [],
      "stateMutability": "nonpayable",
      "type": "function"
    }
  ],
  "bytecode": "0x60806040523480156200001157600080fd5b5060405162003ea638038062003ea6833981810160405281019062000037919062000269565b6040518060400160405280600981526020017f43726564697453425400000000000000000000000000000000000000000000008152506040518060400160405280600b81526020017f43726564697453425476310000000000000000000000000000000000000000008152508160009081620000b4919062000515565b508060019081620000c6919062000515565b505050620000e9620000dd6200013160201b60201c565b6200013960201b60201c565b80600760006101000a81548173ffffffffffffffffffffffffffffffffffffffff021916908373ffffffffffffffffffffffffffffffffffffffff16021790555050620005fc565b600033905090565b6000600660009054906101000a900473ffffffffffffffffffffffffffffffffffffffff16905081600660006101000a81548173ffffffffffffffffffffffffffffffffffffffff021916908373ffffffffffffffffffffffffffffffffffffffff1602179055508173ffffffffffffffffffffffffffffffffffffffff168173ffffffffffffffffffffffffffffffffffffffff167f8be0079c531659141344cd1fd0a4f28419497f9722a3daafe3b4186f6b6457e060405160405180910390a35050565b600080fd5b600073ffffffffffffffffffffffffffffffffffffffff82169050919050565b6000620002318262000204565b9050919050565b620002438162000224565b81146200024f57600080fd5b50565b600081519050620002638162000238565b92915050565b600060208284031215620002825762000281620001ff565b5b6000620002928482850162000252565b91505092915050565b600081519050919050565b7f4e487b7100000000000000000000000000000000000000000000000000000000600052604160045260246000fd5b7f4e487b7100000000000000000000000000000000000000000000000000000000600052602260045260246000fd5b600060028204905060018216806200031d57607f821691505b602082108103620003335762000332620002d5565b5b50919050565b60008190508160005260206000209050919050565b60006020601f8301049050919050565b600082821b905092915050565b6000600883026200039d7fffffffffffffffffffffffffffffffffffffffffffffffffffffffffffffffff826200035e565b620003a986836200035e565b95508019841693508086168417925050509392505050565b6000819050919050565b6000819050919050565b6000620003f6620003f0620003ea84620003c1565b620003cb565b620003c1565b9050919050565b6000819050919050565b6200041283620003d5565b6200042a6200042182620003fd565b8484546200036b565b825550505050565b600090565b6200044162000432565b6200044e81848462000407565b505050565b5b8181101562000476576200046a60008262000437565b60018101905062000454565b5050565b601f821115620004c5576200048f8162000339565b6200049a846200034e565b81016020851015620004aa578190505b620004c2620004b9856200034e565b83018262000453565b50505b505050565b600082821c905092915050565b6000620004ea60001984600802620004ca565b1980831691505092915050565b6000620005058383620004d7565b9150826002028217905092915050565b62000520826200029b565b67ffffffffffffffff8111156200053c576200053b620002a6565b5b62000548825462000304565b620005558282856200047a565b600060209050601f8311600181146200058d576000841562000578578287015190505b620005848582620004f7565b865550620005f4565b601f1984166200059d8662000339565b60005b82811015620005c757848901518255600182019150602085019450602081019050620005a0565b86831015620005e75784890151620005e3601f891682620004d7565b8355505b6001600288020188555050505b505050505050565b61389a806200060c6000396000f3fe608060405234801561001057600080fd5b506004361061018e5760003560e01c8063715018a6116100de578063b88d4fde11610097578063eac449d911610071578063eac449d9146104b9578063f2fde38b146104d5578063f577a500146104f1578063f6e76590146105215761018e565b8063b88d4fde1461043d578063c87b56dd14610459578063e985e9c5146104895761018e565b8063715018a61461037b578063752821e9146103855780638da5cb5b146103b557806395d89b41146103d3578063a22cb465146103f1578063b45a3c0e1461040d5761018e565b806340d097c31161014b578063439455121161012557806343945512146102cf5780635e5ea327146102ff5780636352211e1461031b57806370a082311461034b5761018e565b806340d097c31461026757806342842e0e1461029757806342966c68146102b35761018e565b806301ffc9a71461019357806306fdde03146101c3578063081812fc146101e1578063095ea7b31461021157806323b872dd1461022d5780634051d45b14610249575b600080fd5b6101ad60048036038101906101a891906124d0565b61053d565b6040516101ba9190612518565b60405180910390f35b6101cb61061f565b6040516101d891906125c3565b60405180910390f35b6101fb60048036038101906101f6919061261b565b6106b1565b6040516102089190612689565b60405180910390f35b61022b600480360381019061022691906126d0565b6106f7565b005b61024760048036038101906102429190612710565b61080e565b005b61025161086e565b60405161025e91906127c2565b60405180910390f35b610281600480360381019061027c91906127dd565b610894565b60405161028e9190612819565b60405180910390f35b6102b160048036038101906102ac9190612710565b610b09565b005b6102cd60048036038101906102c8919061261b565b610b29565b005b6102e960048036038101906102e491906127dd565b610b85565b6040516102f69190612518565b60405180910390f35b6103196004803603810190610314919061261b565b610b99565b005b6103356004803603810190610330919061261b565b610c55565b6040516103429190612689565b60405180910390f35b610365600480360381019061036091906127dd565b610c67565b6040516103729190612819565b60405180910390f35b610383610c79565b005b61039f600480360381019061039a919061261b565b610c8d565b6040516103ac9190612851565b60405180910390f35b6103bd610d78565b6040516103ca9190612689565b60405180910390f35b6103db610da2565b6040516103e891906125c3565b60405180910390f35b61040b60048036038101906104069190612898565b610e34565b005b6104276004803603810190610422919061261b565b610e4a565b6040516104349190612518565b60405180910390f35b61045760048036038101906104529190612a0d565b610e55565b005b610473600480360381019061046e919061261b565b610eb7565b60405161048091906125c3565b60405180910390f35b6104a3600480360381019061049e9190612a90565b610f1f565b6040516104b09190612518565b60405180910390f35b6104d360048036038101906104ce91906126d0565b610fb3565b005b6104ef60048036038101906104ea91906127dd565b611077565b005b61050b6004803603810190610506919061261b565b6110fa565b6040516105189190612518565b60405180910390f35b61053b6004803603810190610536919061261b565b61110c565b005b6000610548826111a3565b806105b057507fa511533d000000000000000000000000000000000000000000000000000000007bffffffffffffffffffffffffffffffffffffffffffffffffffffffff1916827bffffffffffffffffffffffffffffffffffffffffffffffffffffffff1916145b8061061857507fb45a3c0e000000000000000000000000000000000000000000000000000000007bffffffffffffffffffffffffffffffffffffffffffffffffffffffff1916827bffffffffffffffffffffffffffffffffffffffffffffffffffffffff1916145b9050919050565b60606000805461062e90612aff565b80601f016020809104026020016040519081016040528092919081815260200182805461065a90612aff565b80156106a75780601f1061067c576101008083540402835291602001916106a7565b820191906000526020600020905b81548152906001019060200180831161068a57829003601f168201915b5050505050905090565b60006106bc82611285565b6004600083815260200190815260200160002060009054906101000a900473ffffffffffffffffffffffffffffffffffffffff169050919050565b6000610702826112d0565b90508073ffffffffffffffffffffffffffffffffffffffff168373ffffffffffffffffffffffffffffffffffffffff1603610772576040517f08c379a000000000000000000000000000000000000000000000000000000000815260040161076990612ba2565b60405180910390fd5b8073ffffffffffffffffffffffffffffffffffffffff16610791611356565b73ffffffffffffffffffffffffffffffffffffffff1614806107c057506107bf816107ba611356565b610f1f565b5b6107ff576040517f08c379a00000000000000000000000000000000000000000000000000000000081526004016107f690612c34565b60405180910390fd5b610809838361135e565b505050565b61081f610819611356565b82611417565b61085e576040517f08c379a000000000000000000000000000000000000000000000000000000000815260040161085590612cc6565b60405180910390fd5b6108698383836114ac565b505050565b600760009054906101000a900473ffffffffffffffffffffffffffffffffffffffff1681565b60008173ffffffffffffffffffffffffffffffffffffffff166108b5611356565b73ffffffffffffffffffffffffffffffffffffffff161461090b576040517f08c379a000000000000000000000000000000000000000000000000000000000815260040161090290612d32565b60405180910390fd5b600061091683610c67565b14610956576040517f08c379a000000000000000000000000000000000000000000000000000000000815260040161094d90612d9e565b60405180910390fd5b61095e612446565b600760009054906101000a900473ffffffffffffffffffffffffffffffffffffffff1673ffffffffffffffffffffffffffffffffffffffff1663d3dd2bdf846040518263ffffffff1660e01b81526004016109b99190612689565b600060405180830381865afa1580156109d6573d6000803e3d6000fd5b505050506040513d6000823e3d601f19601f820116820180604052508101906109ff9190612edc565b508260000183602001828152508261ffff1661ffff16815250505042816020015111610a60576040517f08c379a0000000000000000000000000000000000000000000000000000000008152600401610a5790612f97565b60405180910390fd5b6000610a6c60086117a5565b9050610a7860086117b3565b610a8284826117c9565b816009600083815260200190815260200160002060008201518160000160006101000a81548161ffff021916908361ffff160217905550602082015181600101559050507f30385c845b448a36257a6a1716e6ad2e1bc2cbe333cde1e69fe849ad6511adfe8482604051610af7929190612fb7565b60405180910390a18092505050919050565b610b2483838360405180602001604052806000815250610e55565b505050565b610b3a610b34611356565b82611417565b610b79576040517f08c379a0000000000000000000000000000000000000000000000000000000008152600401610b7090612cc6565b60405180910390fd5b610b82816117e7565b50565b600080610b9183610c67565b119050919050565b610ba1611356565b73ffffffffffffffffffffffffffffffffffffffff16610bc082610c55565b73ffffffffffffffffffffffffffffffffffffffff1614610c16576040517f08c379a0000000000000000000000000000000000000000000000000000000008152600401610c0d9061302c565b60405180910390fd5b610c1f816117e7565b60096000828152602001908152602001600020600080820160006101000a81549061ffff02191690556001820160009055505050565b6000610c60826112d0565b9050919050565b6000610c7282611935565b9050919050565b610c816119ec565b610c8b6000611a6a565b565b600080600960008481526020019081526020016000206040518060400160405290816000820160009054906101000a900461ffff1661ffff1661ffff16815260200160018201548152505090506000816000015161ffff1611610d25576040517f08c379a0000000000000000000000000000000000000000000000000000000008152600401610d1c90613098565b60405180910390fd5b42816020015111610d6b576040517f08c379a0000000000000000000000000000000000000000000000000000000008152600401610d6290613104565b60405180910390fd5b8060000151915050919050565b6000600660009054906101000a900473ffffffffffffffffffffffffffffffffffffffff16905090565b606060018054610db190612aff565b80601f0160208091040260200160405190810160405280929190818152602001828054610ddd90612aff565b8015610e2a5780601f10610dff57610100808354040283529160200191610e2a565b820191906000526020600020905b815481529060010190602001808311610e0d57829003601f168201915b5050505050905090565b610e46610e3f611356565b8383611b30565b5050565b600060019050919050565b610e66610e60611356565b83611417565b610ea5576040517f08c379a0000000000000000000000000000000000000000000000000000000008152600401610e9c90612cc6565b60405180910390fd5b610eb184848484611c9c565b50505050565b6060610ec282611285565b6000610ecc611cf8565b90506000815111610eec5760405180602001604052806000815250610f17565b80610ef684611d0f565b604051602001610f07929190613160565b6040516020818303038152906040525b915050919050565b6000600560008473ffffffffffffffffffffffffffffffffffffffff1673ffffffffffffffffffffffffffffffffffffffff16815260200190815260200160002060008373ffffffffffffffffffffffffffffffffffffffff1673ffffffffffffffffffffffffffffffffffffffff16815260200190815260200160002060009054906101000a900460ff16905092915050565b610fbb6119ec565b8173ffffffffffffffffffffffffffffffffffffffff16610fdb82610c55565b73ffffffffffffffffffffffffffffffffffffffff1614611031576040517f08c379a0000000000000000000000000000000000000000000000000000000008152600401611028906131d0565b60405180910390fd5b61103a816117e7565b7f713b90881ad62c4fa8ab6bd9197fa86481fc0c11b2edba60026514281b2dbac4828260405161106b929190612fb7565b60405180910390a15050565b61107f6119ec565b600073ffffffffffffffffffffffffffffffffffffffff168173ffffffffffffffffffffffffffffffffffffffff16036110ee576040517f08c379a00000000000000000000000000000000000000000000000000000000081526004016110e590613262565b60405180910390fd5b6110f781611a6a565b50565b600061110582611ddd565b9050919050565b42600960008381526020019081526020016000206001015410611164576040517f08c379a000000000000000000000000000000000000000000000000000000000815260040161115b906132ce565b60405180910390fd5b61116d816117e7565b60096000828152602001908152602001600020600080820160006101000a81549061ffff02191690556001820160009055505050565b60007f80ac58cd000000000000000000000000000000000000000000000000000000007bffffffffffffffffffffffffffffffffffffffffffffffffffffffff1916827bffffffffffffffffffffffffffffffffffffffffffffffffffffffff1916148061126e57507f5b5e139f000000000000000000000000000000000000000000000000000000007bffffffffffffffffffffffffffffffffffffffffffffffffffffffff1916827bffffffffffffffffffffffffffffffffffffffffffffffffffffffff1916145b8061127e575061127d82611e1e565b5b9050919050565b61128e81611ddd565b6112cd576040517f08c379a00000000000000000000000000000000000000000000000000000000081526004016112c49061333a565b60405180910390fd5b50565b6000806112dc83611e88565b9050600073ffffffffffffffffffffffffffffffffffffffff168173ffffffffffffffffffffffffffffffffffffffff160361134d576040517f08c379a00000000000000000000000000000000000000000000000000000000081526004016113449061333a565b60405180910390fd5b80915050919050565b600033905090565b816004600083815260200190815260200160002060006101000a81548173ffffffffffffffffffffffffffffffffffffffff021916908373ffffffffffffffffffffffffffffffffffffffff160217905550808273ffffffffffffffffffffffffffffffffffffffff166113d1836112d0565b73ffffffffffffffffffffffffffffffffffffffff167f8c5be1e5ebec7d5bd14f71427d1e84f3dd0314c0f7b2291e5b200ac8c7c3b92560405160405180910390a45050565b600080611423836112d0565b90508073ffffffffffffffffffffffffffffffffffffffff168473ffffffffffffffffffffffffffffffffffffffff16148061146557506114648185610f1f565b5b806114a357508373ffffffffffffffffffffffffffffffffffffffff1661148b846106b1565b73ffffffffffffffffffffffffffffffffffffffff16145b91505092915050565b8273ffffffffffffffffffffffffffffffffffffffff166114cc826112d0565b73ffffffffffffffffffffffffffffffffffffffff1614611522576040517f08c379a0000000000000000000000000000000000000000000000000000000008152600401611519906133cc565b60405180910390fd5b600073ffffffffffffffffffffffffffffffffffffffff168273ffffffffffffffffffffffffffffffffffffffff1603611591576040517f08c379a00000000000000000000000000000000000000000000000000000000081526004016115889061345e565b60405180910390fd5b61159e8383836001611ec5565b8273ffffffffffffffffffffffffffffffffffffffff166115be826112d0565b73ffffffffffffffffffffffffffffffffffffffff1614611614576040517f08c379a000000000000000000000000000000000000000000000000000000000815260040161160b906133cc565b60405180910390fd5b6004600082815260200190815260200160002060006101000a81549073ffffffffffffffffffffffffffffffffffffffff02191690556001600360008573ffffffffffffffffffffffffffffffffffffffff1673ffffffffffffffffffffffffffffffffffffffff168152602001908152602001600020600082825403925050819055506001600360008473ffffffffffffffffffffffffffffffffffffffff1673ffffffffffffffffffffffffffffffffffffffff16815260200190815260200160002060008282540192505081905550816002600083815260200190815260200160002060006101000a81548173ffffffffffffffffffffffffffffffffffffffff021916908373ffffffffffffffffffffffffffffffffffffffff160217905550808273ffffffffffffffffffffffffffffffffffffffff168473ffffffffffffffffffffffffffffffffffffffff167fddf252ad1be2c89b69c2b068fc378daa952ba7f163c4a11628f55a4df523b3ef60405160405180910390a46117a08383836001611ecb565b505050565b600081600001549050919050565b6001816000016000828254019250508190555050565b6117e3828260405180602001604052806000815250611ed1565b5050565b60006117f2826112d0565b9050611802816000846001611ec5565b61180b826112d0565b90506004600083815260200190815260200160002060006101000a81549073ffffffffffffffffffffffffffffffffffffffff02191690556001600360008373ffffffffffffffffffffffffffffffffffffffff1673ffffffffffffffffffffffffffffffffffffffff168152602001908152602001600020600082825403925050819055506002600083815260200190815260200160002060006101000a81549073ffffffffffffffffffffffffffffffffffffffff021916905581600073ffffffffffffffffffffffffffffffffffffffff168273ffffffffffffffffffffffffffffffffffffffff167fddf252ad1be2c89b69c2b068fc378daa952ba7f163c4a11628f55a4df523b3ef60405160405180910390a4611931816000846001611ecb565b5050565b60008073ffffffffffffffffffffffffffffffffffffffff168273ffffffffffffffffffffffffffffffffffffffff16036119a5576040517f08c379a000000000000000000000000000000000000000000000000000000000815260040161199c906134f0565b60405180910390fd5b600360008373ffffffffffffffffffffffffffffffffffffffff1673ffffffffffffffffffffffffffffffffffffffff168152602001908152602001600020549050919050565b6119f4611356565b73ffffffffffffffffffffffffffffffffffffffff16611a12610d78565b73ffffffffffffffffffffffffffffffffffffffff1614611a68576040517f08c379a0000000000000000000000000000000000000000000000000000000008152600401611a5f9061355c565b60405180910390fd5b565b6000600660009054906101000a900473ffffffffffffffffffffffffffffffffffffffff16905081600660006101000a81548173ffffffffffffffffffffffffffffffffffffffff021916908373ffffffffffffffffffffffffffffffffffffffff1602179055508173ffffffffffffffffffffffffffffffffffffffff168173ffffffffffffffffffffffffffffffffffffffff167f8be0079c531659141344cd1fd0a4f28419497f9722a3daafe3b4186f6b6457e060405160405180910390a35050565b8173ffffffffffffffffffffffffffffffffffffffff168373ffffffffffffffffffffffffffffffffffffffff1603611b9e576040517f08c379a0000000000000000000000000000000000000000000000000000000008152600401611b95906135c8565b60405180910390fd5b80600560008573ffffffffffffffffffffffffffffffffffffffff1673ffffffffffffffffffffffffffffffffffffffff16815260200190815260200160002060008473ffffffffffffffffffffffffffffffffffffffff1673ffffffffffffffffffffffffffffffffffffffff16815260200190815260200160002060006101000a81548160ff0219169083151502179055508173ffffffffffffffffffffffffffffffffffffffff168373ffffffffffffffffffffffffffffffffffffffff167f17307eab39ab6107e8899845ad3d59bd9653f200f220920489ca2b5937696c3183604051611c8f9190612518565b60405180910390a3505050565b611ca78484846114ac565b611cb384848484611f2c565b611cf2576040517f08c379a0000000000000000000000000000000000000000000000000000000008152600401611ce99061365a565b60405180910390fd5b50505050565b606060405180602001604052806000815250905090565b606060006001611d1e846120b3565b01905060008167ffffffffffffffff811115611d3d57611d3c6128e2565b5b6040519080825280601f01601f191660200182016040528015611d6f5781602001600182028036833780820191505090505b509050600082602001820190505b600115611dd2578080600190039150507f3031323334353637383961626364656600000000000000000000000000000000600a86061a8153600a8581611dc657611dc561367a565b5b04945060008503611d7d575b819350505050919050565b60008073ffffffffffffffffffffffffffffffffffffffff16611dff83611e88565b73ffffffffffffffffffffffffffffffffffffffff1614159050919050565b60007f01ffc9a7000000000000000000000000000000000000000000000000000000007bffffffffffffffffffffffffffffffffffffffffffffffffffffffff1916827bffffffffffffffffffffffffffffffffffffffffffffffffffffffff1916149050919050565b60006002600083815260200190815260200160002060009054906101000a900473ffffffffffffffffffffffffffffffffffffffff169050919050565b50505050565b50505050565b611edb8383612206565b611ee86000848484611f2c565b611f27576040517f08c379a0000000000000000000000000000000000000000000000000000000008152600401611f1e9061365a565b60405180910390fd5b505050565b6000611f4d8473ffffffffffffffffffffffffffffffffffffffff16612423565b156120a6578373ffffffffffffffffffffffffffffffffffffffff1663150b7a02611f76611356565b8786866040518563ffffffff1660e01b8152600401611f9894939291906136fe565b6020604051808303816000875af1925050508015611fd457506040513d601f19601f82011682018060405250810190611fd1919061375f565b60015b612056573d8060008114612004576040519150601f19603f3d011682016040523d82523d6000602084013e612009565b606091505b50600081510361204e576040517f08c379a00000000000000000000000000000000000000000000000000000000081526004016120459061365a565b60405180910390fd5b805181602001fd5b63150b7a0260e01b7bffffffffffffffffffffffffffffffffffffffffffffffffffffffff1916817bffffffffffffffffffffffffffffffffffffffffffffffffffffffff1916149150506120ab565b600190505b949350505050565b600080600090507a184f03e93ff9f4daa797ed6e38ed64bf6a1f0100000000000000008310612111577a184f03e93ff9f4daa797ed6e38ed64bf6a1f01000000000000000083816121075761210661367a565b5b0492506040810190505b6d04ee2d6d415b85acef8100000000831061214e576d04ee2d6d415b85acef810000000083816121445761214361367a565b5b0492506020810190505b662386f26fc10000831061217d57662386f26fc1000083816121735761217261367a565b5b0492506010810190505b6305f5e10083106121a6576305f5e100838161219c5761219b61367a565b5b0492506008810190505b61271083106121cb5761271083816121c1576121c061367a565b5b0492506004810190505b606483106121ee57606483816121e4576121e361367a565b5b0492506002810190505b600a83106121fd576001810190505b80915050919050565b600073ffffffffffffffffffffffffffffffffffffffff168273ffffffffffffffffffffffffffffffffffffffff1603612275576040517f08c379a000000000000000000000000000000000000000000000000000000000815260040161226c906137d8565b60405180910390fd5b61227e81611ddd565b156122be576040517f08c379a00000000000000000000000000000000000000000000000000000000081526004016122b590613844565b60405180910390fd5b6122cc600083836001611ec5565b6122d581611ddd565b15612315576040517f08c379a000000000000000000000000000000000000000000000000000000000815260040161230c90613844565b60405180910390fd5b6001600360008473ffffffffffffffffffffffffffffffffffffffff1673ffffffffffffffffffffffffffffffffffffffff16815260200190815260200160002060008282540192505081905550816002600083815260200190815260200160002060006101000a81548173ffffffffffffffffffffffffffffffffffffffff021916908373ffffffffffffffffffffffffffffffffffffffff160217905550808273ffffffffffffffffffffffffffffffffffffffff16600073ffffffffffffffffffffffffffffffffffffffff167fddf252ad1be2c89b69c2b068fc378daa952ba7f163c4a11628f55a4df523b3ef60405160405180910390a461241f600083836001611ecb565b5050565b6000808273ffffffffffffffffffffffffffffffffffffffff163b119050919050565b6040518060400160405280600061ffff168152602001600081525090565b6000604051905090565b600080fd5b600080fd5b60007fffffffff0000000000000000000000000000000000000000000000000000000082169050919050565b6124ad81612478565b81146124b857600080fd5b50565b6000813590506124ca816124a4565b92915050565b6000602082840312156124e6576124e561246e565b5b60006124f4848285016124bb565b91505092915050565b60008115159050919050565b612512816124fd565b82525050565b600060208201905061252d6000830184612509565b92915050565b600081519050919050565b600082825260208201905092915050565b60005b8381101561256d578082015181840152602081019050612552565b60008484015250505050565b6000601f19601f8301169050919050565b600061259582612533565b61259f818561253e565b93506125af81856020860161254f565b6125b881612579565b840191505092915050565b600060208201905081810360008301526125dd818461258a565b905092915050565b6000819050919050565b6125f8816125e5565b811461260357600080fd5b50565b600081359050612615816125ef565b92915050565b6000602082840312156126315761263061246e565b5b600061263f84828501612606565b91505092915050565b600073ffffffffffffffffffffffffffffffffffffffff82169050919050565b600061267382612648565b9050919050565b61268381612668565b82525050565b600060208201905061269e600083018461267a565b92915050565b6126ad81612668565b81146126b857600080fd5b50565b6000813590506126ca816126a4565b92915050565b600080604083850312156126e7576126e661246e565b5b60006126f5858286016126bb565b925050602061270685828601612606565b9150509250929050565b6000806000606084860312156127295761272861246e565b5b6000612737868287016126bb565b9350506020612748868287016126bb565b925050604061275986828701612606565b9150509250925092565b6000819050919050565b600061278861278361277e84612648565b612763565b612648565b9050919050565b600061279a8261276d565b9050919050565b60006127ac8261278f565b9050919050565b6127bc816127a1565b82525050565b60006020820190506127d760008301846127b3565b92915050565b6000602082840312156127f3576127f261246e565b5b6000612801848285016126bb565b91505092915050565b612813816125e5565b82525050565b600060208201905061282e600083018461280a565b92915050565b600061ffff82169050919050565b61284b81612834565b82525050565b60006020820190506128666000830184612842565b92915050565b612875816124fd565b811461288057600080fd5b50565b6000813590506128928161286c565b92915050565b600080604083850312156128af576128ae61246e565b5b60006128bd858286016126bb565b92505060206128ce85828601612883565b9150509250929050565b600080fd5b600080fd5b7f4e487b7100000000000000000000000000000000000000000000000000000000600052604160045260246000fd5b61291a82612579565b810181811067ffffffffffffffff82111715612939576129386128e2565b5b80604052505050565b600061294c612464565b90506129588282612911565b919050565b600067ffffffffffffffff821115612978576129776128e2565b5b61298182612579565b9050602081019050919050565b82818337600083830152505050565b60006129b06129ab8461295d565b612942565b9050828152602081018484840111156129cc576129cb6128dd565b5b6129d784828561298e565b509392505050565b600082601f8301126129f4576129f36128d8565b5b8135612a0484826020860161299d565b91505092915050565b60008060008060808587031215612a2757612a2661246e565b5b6000612a35878288016126bb565b9450506020612a46878288016126bb565b9350506040612a5787828801612606565b925050606085013567ffffffffffffffff811115612a7857612a77612473565b5b612a84878288016129df565b91505092959194509250565b60008060408385031215612aa757612aa661246e565b5b6000612ab5858286016126bb565b9250506020612ac6858286016126bb565b9150509250929050565b7f4e487b7100000000000000000000000000000000000000000000000000000000600052602260045260246000fd5b60006002820490506001821680612b1757607f821691505b602082108103612b2a57612b29612ad0565b5b50919050565b7f4552433732313a20617070726f76616c20746f2063757272656e74206f776e6560008201527f7200000000000000000000000000000000000000000000000000000000000000602082015250565b6000612b8c60218361253e565b9150612b9782612b30565b604082019050919050565b60006020820190508181036000830152612bbb81612b7f565b9050919050565b7f4552433732313a20617070726f76652063616c6c6572206973206e6f7420746f60008201527f6b656e206f776e6572206f7220617070726f76656420666f7220616c6c000000602082015250565b6000612c1e603d8361253e565b9150612c2982612bc2565b604082019050919050565b60006020820190508181036000830152612c4d81612c11565b9050919050565b7f4552433732313a2063616c6c6572206973206e6f7420746f6b656e206f776e6560008201527f72206f7220617070726f76656400000000000000000000000000000000000000602082015250565b6000612cb0602d8361253e565b9150612cbb82612c54565b604082019050919050565b60006020820190508181036000830152612cdf81612ca3565b9050919050565b7f6f6e6c7920627920757365720000000000000000000000000000000000000000600082015250565b6000612d1c600c8361253e565b9150612d2782612ce6565b602082019050919050565b60006020820190508181036000830152612d4b81612d0f565b9050919050565b7f616c726561647920686173205342540000000000000000000000000000000000600082015250565b6000612d88600f8361253e565b9150612d9382612d52565b602082019050919050565b60006020820190508181036000830152612db781612d7b565b9050919050565b612dc781612834565b8114612dd257600080fd5b50565b600081519050612de481612dbe565b92915050565b600081519050612df9816125ef565b92915050565b600067ffffffffffffffff821115612e1a57612e196128e2565b5b602082029050602081019050919050565b600080fd5b600081519050612e3f816126a4565b92915050565b6000612e58612e5384612dff565b612942565b90508083825260208201905060208402830185811115612e7b57612e7a612e2b565b5b835b81811015612ea45780612e908882612e30565b845260208401935050602081019050612e7d565b5050509392505050565b600082601f830112612ec357612ec26128d8565b5b8151612ed3848260208601612e45565b91505092915050565b600080600060608486031215612ef557612ef461246e565b5b6000612f0386828701612dd5565b9350506020612f1486828701612dea565b925050604084015167ffffffffffffffff811115612f3557612f34612473565b5b612f4186828701612eae565b9150509250925092565b7f73636f726520616c726561647920657870697265640000000000000000000000600082015250565b6000612f8160158361253e565b9150612f8c82612f4b565b602082019050919050565b60006020820190508181036000830152612fb081612f74565b9050919050565b6000604082019050612fcc600083018561267a565b612fd9602083018461280a565b9392505050565b7f746f6b656e206e6f74206f776e65642062792073656e64657200000000000000600082015250565b600061301660198361253e565b915061302182612fe0565b602082019050919050565b6000602082019050818103600083015261304581613009565b9050919050565b7f746f6b656e206e6f7420666f756e640000000000000000000000000000000000600082015250565b6000613082600f8361253e565b915061308d8261304c565b602082019050919050565b600060208201905081810360008301526130b181613075565b9050919050565b7f6372656469742073636f72652065787069726564000000000000000000000000600082015250565b60006130ee60148361253e565b91506130f9826130b8565b602082019050919050565b6000602082019050818103600083015261311d816130e1565b9050919050565b600081905092915050565b600061313a82612533565b6131448185613124565b935061315481856020860161254f565b80840191505092915050565b600061316c828561312f565b9150613178828461312f565b91508190509392505050565b7f746f6b656e206e6f74206f776e6564206279206f776e65720000000000000000600082015250565b60006131ba60188361253e565b91506131c582613184565b602082019050919050565b600060208201905081810360008301526131e9816131ad565b9050919050565b7f4f776e61626c653a206e6577206f776e657220697320746865207a65726f206160008201527f6464726573730000000000000000000000000000000000000000000000000000602082015250565b600061324c60268361253e565b9150613257826131f0565b604082019050919050565b6000602082019050818103600083015261327b8161323f565b9050919050565b7f6e6f742065787069726564000000000000000000000000000000000000000000600082015250565b60006132b8600b8361253e565b91506132c382613282565b602082019050919050565b600060208201905081810360008301526132e7816132ab565b9050919050565b7f4552433732313a20696e76616c696420746f6b656e2049440000000000000000600082015250565b600061332460188361253e565b915061332f826132ee565b602082019050919050565b6000602082019050818103600083015261335381613317565b9050919050565b7f4552433732313a207472616e736665722066726f6d20696e636f72726563742060008201527f6f776e6572000000000000000000000000000000000000000000000000000000602082015250565b60006133b660258361253e565b91506133c18261335a565b604082019050919050565b600060208201905081810360008301526133e5816133a9565b9050919050565b7f4552433732313a207472616e7366657220746f20746865207a65726f2061646460008201527f7265737300000000000000000000000000000000000000000000000000000000602082015250565b600061344860248361253e565b9150613453826133ec565b604082019050919050565b600060208201905081810360008301526134778161343b565b9050919050565b7f4552433732313a2061646472657373207a65726f206973206e6f74206120766160008201527f6c6964206f776e65720000000000000000000000000000000000000000000000602082015250565b60006134da60298361253e565b91506134e58261347e565b604082019050919050565b60006020820190508181036000830152613509816134cd565b9050919050565b7f4f776e61626c653a2063616c6c6572206973206e6f7420746865206f776e6572600082015250565b600061354660208361253e565b915061355182613510565b602082019050919050565b6000602082019050818103600083015261357581613539565b9050919050565b7f4552433732313a20617070726f766520746f2063616c6c657200000000000000600082015250565b60006135b260198361253e565b91506135bd8261357c565b602082019050919050565b600060208201905081810360008301526135e1816135a5565b9050919050565b7f4552433732313a207472616e7366657220746f206e6f6e20455243373231526560008201527f63656976657220696d706c656d656e7465720000000000000000000000000000602082015250565b600061364460328361253e565b915061364f826135e8565b604082019050919050565b6000602082019050818103600083015261367381613637565b9050919050565b7f4e487b7100000000000000000000000000000000000000000000000000000000600052601260045260246000fd5b600081519050919050565b600082825260208201905092915050565b60006136d0826136a9565b6136da81856136b4565b93506136ea81856020860161254f565b6136f381612579565b840191505092915050565b6000608082019050613713600083018761267a565b613720602083018661267a565b61372d604083018561280a565b818103606083015261373f81846136c5565b905095945050505050565b600081519050613759816124a4565b92915050565b6000602082840312156137755761377461246e565b5b60006137838482850161374a565b91505092915050565b7f4552433732313a206d696e7420746f20746865207a65726f2061646472657373600082015250565b60006137c260208361253e565b91506137cd8261378c565b602082019050919050565b600060208201905081810360008301526137f1816137b5565b9050919050565b7f4552433732313a20746f6b656e20616c7265616479206d696e74656400000000600082015250565b600061382e601c8361253e565b9150613839826137f8565b602082019050919050565b6000602082019050818103600083015261385d81613821565b905091905056fea26469706673582212203ee5d985d8ee836b209dc4967a4e3f1967c00eae285b6418300b3ad54da79f2764736f6c63430008110033",
  "linkReferences": {},
  "deployedLinkReferences": {}
}