{
  "_format": "hh-sol-artifact-1",
  "contractName": "CreditData",
  "sourceName": "contracts/credit.sol",
  "abi": [
    {
      "anonymous": false,
      "inputs": [
        {
          "indexed": false,
          "internalType": "address[]",
          "name": "whom",
          "type": "address[]"
        }
      ],
      "name": "CombinedScoreReady",
      "type": "event"
    },
    {
      "anonymous": false,
      "inputs": [
        {
          "indexed": true,
          "internalType": "address",
          "name": "previousOwner",
          "type": "address"
        },
        {
          "indexed": true,
          "internalType": "address",
          "name": "newOwner",
          "type": "address"
        }
      ],
      "name": "OwnershipTransferred",
      "type": "event"
    },
    {
      "anonymous": false,
      "inputs": [
        {
          "indexed": false,
          "internalType": "address",
          "name": "whom",
          "type": "address"
        }
      ],
      "name": "ReportReady",
      "type": "event"
    },
    {
      "anonymous": false,
      "inputs": [
        {
          "indexed": false,
          "internalType": "address[]",
          "name": "whom",
          "type": "address[]"
        }
      ],
      "name": "RequestCombinedScore",
      "type": "event"
    },
    {
      "anonymous": false,
      "inputs": [
        {
          "indexed": false,
          "internalType": "address",
          "name": "whom",
          "type": "address"
        }
      ],
      "name": "RequestReport",
      "type": "event"
    },
    {
      "anonymous": false,
      "inputs": [
        {
          "indexed": false,
          "internalType": "address",
          "name": "whom",
          "type": "address"
        }
      ],
      "name": "RequestScore",
      "type": "event"
    },
    {
      "anonymous": false,
      "inputs": [
        {
          "indexed": false,
          "internalType": "address",
          "name": "whom",
          "type": "address"
        }
      ],
      "name": "ScoreReady",
      "type": "event"
    },
    {
      "inputs": [],
      "name": "_disclosure",
      "outputs": [
        {
          "internalType": "address",
          "name": "",
          "type": "address"
        }
      ],
      "stateMutability": "view",
      "type": "function"
    },
    {
      "inputs": [],
      "name": "_sbt",
      "outputs": [
        {
          "internalType": "address",
          "name": "",
          "type": "address"
        }
      ],
      "stateMutability": "view",
      "type": "function"
    },
    {
      "inputs": [],
      "name": "_writer",
      "outputs": [
        {
          "internalType": "address",
          "name": "",
          "type": "address"
        }
      ],
      "stateMutability": "view",
      "type": "function"
    },
    {
      "inputs": [],
      "name": "clearCreditReport",
      "outputs": [],
      "stateMutability": "nonpayable",
      "type": "function"
    },
    {
      "inputs": [],
      "name": "clearCreditScore",
      "outputs": [],
      "stateMutability": "nonpayable",
      "type": "function"
    },
    {
      "inputs": [
        {
          "internalType": "address",
          "name": "whom",
          "type": "address"
        }
      ],
      "name": "getCreditReport",
      "outputs": [
        {
          "internalType": "string",
          "name": "",
          "type": "string"
        },
        {
          "internalType": "uint256",
          "name": "",
          "type": "uint256"
        }
      ],
      "stateMutability": "view",
      "type": "function"
    },
    {
      "inputs": [
        {
          "internalType": "address",
          "name": "whom",
          "type": "address"
        }
      ],
      "name": "getCreditScore",
      "outputs": [
        {
          "internalType": "uint16",
          "name": "",
          "type": "uint16"
        },
        {
          "internalType": "uint256",
          "name": "",
          "type": "uint256"
        },
        {
          "internalType": "address[]",
          "name": "",
          "type": "address[]"
        }
      ],
      "stateMutability": "view",
      "type": "function"
    },
    {
      "inputs": [],
      "name": "owner",
      "outputs": [
        {
          "internalType": "address",
          "name": "",
          "type": "address"
        }
      ],
      "stateMutability": "view",
      "type": "function"
    },
    {
      "inputs": [],
      "name": "renounceOwnership",
      "outputs": [],
      "stateMutability": "nonpayable",
      "type": "function"
    },
    {
      "inputs": [
        {
          "internalType": "address[]",
          "name": "whom",
          "type": "address[]"
        }
      ],
      "name": "requestCombinedCreditScore",
      "outputs": [],
      "stateMutability": "nonpayable",
      "type": "function"
    },
    {
      "inputs": [
        {
          "internalType": "address",
          "name": "whom",
          "type": "address"
        }
      ],
      "name": "requestCreditReport",
      "outputs": [],
      "stateMutability": "nonpayable",
      "type": "function"
    },
    {
      "inputs": [
        {
          "internalType": "address",
          "name": "whom",
          "type": "address"
        }
      ],
      "name": "requestCreditScore",
      "outputs": [],
      "stateMutability": "nonpayable",
      "type": "function"
    },
    {
      "inputs": [
        {
          "internalType": "address",
          "name": "whom",
          "type": "address"
        }
      ],
      "name": "setDisclosure",
      "outputs": [],
      "stateMutability": "nonpayable",
      "type": "function"
    },
    {
      "inputs": [
        {
          "internalType": "address",
          "name": "whom",
          "type": "address"
        }
      ],
      "name": "setSbt",
      "outputs": [],
      "stateMutability": "nonpayable",
      "type": "function"
    },
    {
      "inputs": [
        {
          "internalType": "address",
          "name": "whom",
          "type": "address"
        }
      ],
      "name": "setWriter",
      "outputs": [],
      "stateMutability": "nonpayable",
      "type": "function"
    },
    {
      "inputs": [
        {
          "internalType": "address[]",
          "name": "whom",
          "type": "address[]"
        },
        {
          "internalType": "uint16",
          "name": "score",
          "type": "uint16"
        },
        {
          "internalType": "uint256",
          "name": "expiry",
          "type": "uint256"
        }
      ],
      "name": "storeCombinedCreditScore",
      "outputs": [],
      "stateMutability": "nonpayable",
      "type": "function"
    },
    {
      "inputs": [
        {
          "internalType": "address",
          "name": "whom",
          "type": "address"
        },
        {
          "internalType": "string",
          "name": "report",
          "type": "string"
        },
        {
          "internalType": "uint256",
          "name": "expiry",
          "type": "uint256"
        }
      ],
      "name": "storeCreditReport",
      "outputs": [],
      "stateMutability": "nonpayable",
      "type": "function"
    },
    {
      "inputs": [
        {
          "internalType": "address",
          "name": "whom",
          "type": "address"
        },
        {
          "internalType": "uint16",
          "name": "score",
          "type": "uint16"
        },
        {
          "internalType": "uint256",
          "name": "expiry",
          "type": "uint256"
        }
      ],
      "name": "storeCreditScore",
      "outputs": [],
      "stateMutability": "nonpayable",
      "type": "function"
    },
    {
      "inputs": [
        {
          "internalType": "address",
          "name": "newOwner",
          "type": "address"
        }
      ],
      "name": "transferOwnership",
      "outputs": [],
      "stateMutability": "nonpayable",
      "type": "function"
    }
  ],
  "bytecode": "0x60806040523480156200001157600080fd5b5062000032620000266200003860201b60201c565b6200004060201b60201c565b62000104565b600033905090565b60008060009054906101000a900473ffffffffffffffffffffffffffffffffffffffff169050816000806101000a81548173ffffffffffffffffffffffffffffffffffffffff021916908373ffffffffffffffffffffffffffffffffffffffff1602179055508173ffffffffffffffffffffffffffffffffffffffff168173ffffffffffffffffffffffffffffffffffffffff167f8be0079c531659141344cd1fd0a4f28419497f9722a3daafe3b4186f6b6457e060405160405180910390a35050565b61250e80620001146000396000f3fe608060405234801561001057600080fd5b50600436106101215760003560e01c80638da5cb5b116100ad578063d0cf4a5b11610071578063d0cf4a5b1461027e578063d3dd2bdf1461029a578063e8e3005a146102cc578063f2fde38b146102ea578063fd94ab3d1461030657610121565b80638da5cb5b14610200578063a4478d701461021e578063b5fdc55514610228578063be68d21214610244578063ce6ecc0d1461026057610121565b806344efed47116100f457806344efed47146101965780634c04896f146101a0578063715018a6146101be57806372f26c0f146101c85780637ba474f4146101e457610121565b8063183090fb14610126578063228dc360146101425780632684f9361461015e57806339e205231461017a575b600080fd5b610140600480360381019061013b9190611740565b610337565b005b61015c60048036038101906101579190611793565b6104fc565b005b61017860048036038101906101739190611793565b610548565b005b610194600480360381019061018f9190611793565b6105f9565b005b61019e610645565b005b6101a86106ac565b6040516101b591906117cf565b60405180910390f35b6101c66106d2565b005b6101e260048036038101906101dd919061184f565b6106e6565b005b6101fe60048036038101906101f99190611793565b610808565b005b6102086108b9565b60405161021591906117cf565b60405180910390f35b6102266108e2565b005b610242600480360381019061023d91906118f2565b61094a565b005b61025e60048036038101906102599190611966565b610ab7565b005b610268610cfb565b60405161027591906117cf565b60405180910390f35b61029860048036038101906102939190611793565b610d21565b005b6102b460048036038101906102af9190611793565b610d6d565b6040516102c393929190611ab6565b60405180910390f35b6102d46110b8565b6040516102e191906117cf565b60405180910390f35b61030460048036038101906102ff9190611793565b6110de565b005b610320600480360381019061031b9190611793565b611161565b60405161032e929190611b84565b60405180910390f35b600260009054906101000a900473ffffffffffffffffffffffffffffffffffffffff1673ffffffffffffffffffffffffffffffffffffffff16610378611440565b73ffffffffffffffffffffffffffffffffffffffff16146103ce576040517f08c379a00000000000000000000000000000000000000000000000000000000081526004016103c590611c00565b60405180910390fd5b81600460008573ffffffffffffffffffffffffffffffffffffffff1673ffffffffffffffffffffffffffffffffffffffff16815260200190815260200160002060000160006101000a81548161ffff021916908361ffff16021790555080600460008573ffffffffffffffffffffffffffffffffffffffff1673ffffffffffffffffffffffffffffffffffffffff16815260200190815260200160002060010181905550600460008473ffffffffffffffffffffffffffffffffffffffff1673ffffffffffffffffffffffffffffffffffffffff16815260200190815260200160002060020160006104c0919061158a565b7fa49a15c3360c9ca954e8c133b21366f2ae545e0f5e2c6cc81ca9d62e6186ac9b836040516104ef91906117cf565b60405180910390a1505050565b610504611448565b80600360006101000a81548173ffffffffffffffffffffffffffffffffffffffff021916908373ffffffffffffffffffffffffffffffffffffffff16021790555050565b808073ffffffffffffffffffffffffffffffffffffffff16610568611440565b73ffffffffffffffffffffffffffffffffffffffff16146105be576040517f08c379a00000000000000000000000000000000000000000000000000000000081526004016105b590611c6c565b60405180910390fd5b7f7d52ce2b13e9530cb9fac8e2bc4a9ef0802b03b37c57ba434baa2e4913ce7330826040516105ed91906117cf565b60405180910390a15050565b610601611448565b80600260006101000a81548173ffffffffffffffffffffffffffffffffffffffff021916908373ffffffffffffffffffffffffffffffffffffffff16021790555050565b600060046000610653611440565b73ffffffffffffffffffffffffffffffffffffffff1673ffffffffffffffffffffffffffffffffffffffff16815260200190815260200160002060000160006101000a81548161ffff021916908361ffff160217905550565b600260009054906101000a900473ffffffffffffffffffffffffffffffffffffffff1681565b6106da611448565b6106e460006114c6565b565b818160008181106106fa576106f9611c8c565b5b905060200201602081019061070f9190611793565b8073ffffffffffffffffffffffffffffffffffffffff1661072e611440565b73ffffffffffffffffffffffffffffffffffffffff1614610784576040517f08c379a000000000000000000000000000000000000000000000000000000000815260040161077b90611c6c565b60405180910390fd5b600183839050116107ca576040517f08c379a00000000000000000000000000000000000000000000000000000000081526004016107c190611d07565b60405180910390fd5b7f1f1a6e4720813f454c338d7c777dd2209479b9041b4b48c7e537126c7556790c83836040516107fb929190611db2565b60405180910390a1505050565b808073ffffffffffffffffffffffffffffffffffffffff16610828611440565b73ffffffffffffffffffffffffffffffffffffffff161461087e576040517f08c379a000000000000000000000000000000000000000000000000000000000815260040161087590611c6c565b60405180910390fd5b7f7dee5acec616daf5cfb291b08b352fef9d591af1d65989cea96d7737af09a579826040516108ad91906117cf565b60405180910390a15050565b60008060009054906101000a900473ffffffffffffffffffffffffffffffffffffffff16905090565b60405180602001604052806000815250600460006108fe611440565b73ffffffffffffffffffffffffffffffffffffffff1673ffffffffffffffffffffffffffffffffffffffff16815260200190815260200160002060030190816109479190612011565b50565b600260009054906101000a900473ffffffffffffffffffffffffffffffffffffffff1673ffffffffffffffffffffffffffffffffffffffff1661098b611440565b73ffffffffffffffffffffffffffffffffffffffff16146109e1576040517f08c379a00000000000000000000000000000000000000000000000000000000081526004016109d890611c00565b60405180910390fd5b8282600460008773ffffffffffffffffffffffffffffffffffffffff1673ffffffffffffffffffffffffffffffffffffffff1681526020019081526020016000206003019182610a329291906120ee565b5080600460008673ffffffffffffffffffffffffffffffffffffffff1673ffffffffffffffffffffffffffffffffffffffff168152602001908152602001600020600401819055507f13028f428eca8468fdfde5aef5e9db553805d34bdffd0f6b909f16375685142084604051610aa991906117cf565b60405180910390a150505050565b600260009054906101000a900473ffffffffffffffffffffffffffffffffffffffff1673ffffffffffffffffffffffffffffffffffffffff16610af8611440565b73ffffffffffffffffffffffffffffffffffffffff1614610b4e576040517f08c379a0000000000000000000000000000000000000000000000000000000008152600401610b4590611c00565b60405180910390fd5b816004600086866000818110610b6757610b66611c8c565b5b9050602002016020810190610b7c9190611793565b73ffffffffffffffffffffffffffffffffffffffff1673ffffffffffffffffffffffffffffffffffffffff16815260200190815260200160002060000160006101000a81548161ffff021916908361ffff160217905550806004600086866000818110610bec57610beb611c8c565b5b9050602002016020810190610c019190611793565b73ffffffffffffffffffffffffffffffffffffffff1673ffffffffffffffffffffffffffffffffffffffff1681526020019081526020016000206001018190555083836004600087876000818110610c5c57610c5b611c8c565b5b9050602002016020810190610c719190611793565b73ffffffffffffffffffffffffffffffffffffffff1673ffffffffffffffffffffffffffffffffffffffff1681526020019081526020016000206002019190610cbb9291906115ab565b507f23dc457501204682403cb2911e231f6302c96c9adc4deab8f4a1d030292e6b118484604051610ced929190611db2565b60405180910390a150505050565b600360009054906101000a900473ffffffffffffffffffffffffffffffffffffffff1681565b610d29611448565b80600160006101000a81548173ffffffffffffffffffffffffffffffffffffffff021916908373ffffffffffffffffffffffffffffffffffffffff16021790555050565b6000806060600160009054906101000a900473ffffffffffffffffffffffffffffffffffffffff1673ffffffffffffffffffffffffffffffffffffffff16610db3611440565b73ffffffffffffffffffffffffffffffffffffffff161480610e295750600360009054906101000a900473ffffffffffffffffffffffffffffffffffffffff1673ffffffffffffffffffffffffffffffffffffffff16610e11611440565b73ffffffffffffffffffffffffffffffffffffffff16145b610e68576040517f08c379a0000000000000000000000000000000000000000000000000000000008152600401610e5f9061220a565b60405180910390fd5b6000600460008673ffffffffffffffffffffffffffffffffffffffff1673ffffffffffffffffffffffffffffffffffffffff1681526020019081526020016000206040518060a00160405290816000820160009054906101000a900461ffff1661ffff1661ffff1681526020016001820154815260200160028201805480602002602001604051908101604052809291908181526020018280548015610f6357602002820191906000526020600020905b8160009054906101000a900473ffffffffffffffffffffffffffffffffffffffff1673ffffffffffffffffffffffffffffffffffffffff1681526020019060010190808311610f19575b50505050508152602001600382018054610f7c90611e34565b80601f0160208091040260200160405190810160405280929190818152602001828054610fa890611e34565b8015610ff55780601f10610fca57610100808354040283529160200191610ff5565b820191906000526020600020905b815481529060010190602001808311610fd857829003601f168201915b5050505050815260200160048201548152505090506000816000015161ffff1611611055576040517f08c379a000000000000000000000000000000000000000000000000000000000815260040161104c90612276565b60405180910390fd5b4281602001511161109b576040517f08c379a0000000000000000000000000000000000000000000000000000000008152600401611092906122e2565b60405180910390fd5b806000015181602001518260400151935093509350509193909250565b600160009054906101000a900473ffffffffffffffffffffffffffffffffffffffff1681565b6110e6611448565b600073ffffffffffffffffffffffffffffffffffffffff168173ffffffffffffffffffffffffffffffffffffffff1603611155576040517f08c379a000000000000000000000000000000000000000000000000000000000815260040161114c90612374565b60405180910390fd5b61115e816114c6565b50565b60606000600160009054906101000a900473ffffffffffffffffffffffffffffffffffffffff1673ffffffffffffffffffffffffffffffffffffffff166111a6611440565b73ffffffffffffffffffffffffffffffffffffffff16146111fc576040517f08c379a00000000000000000000000000000000000000000000000000000000081526004016111f39061220a565b60405180910390fd5b6000600460008573ffffffffffffffffffffffffffffffffffffffff1673ffffffffffffffffffffffffffffffffffffffff1681526020019081526020016000206040518060a00160405290816000820160009054906101000a900461ffff1661ffff1661ffff16815260200160018201548152602001600282018054806020026020016040519081016040528092919081815260200182805480156112f757602002820191906000526020600020905b8160009054906101000a900473ffffffffffffffffffffffffffffffffffffffff1673ffffffffffffffffffffffffffffffffffffffff16815260200190600101908083116112ad575b5050505050815260200160038201805461131090611e34565b80601f016020809104026020016040519081016040528092919081815260200182805461133c90611e34565b80156113895780601f1061135e57610100808354040283529160200191611389565b820191906000526020600020905b81548152906001019060200180831161136c57829003601f168201915b5050505050815260200160048201548152505090506000816060015151116113e6576040517f08c379a00000000000000000000000000000000000000000000000000000000081526004016113dd906123e0565b60405180910390fd5b4281608001511161142c576040517f08c379a00000000000000000000000000000000000000000000000000000000081526004016114239061244c565b60405180910390fd5b806060015181608001519250925050915091565b600033905090565b611450611440565b73ffffffffffffffffffffffffffffffffffffffff1661146e6108b9565b73ffffffffffffffffffffffffffffffffffffffff16146114c4576040517f08c379a00000000000000000000000000000000000000000000000000000000081526004016114bb906124b8565b60405180910390fd5b565b60008060009054906101000a900473ffffffffffffffffffffffffffffffffffffffff169050816000806101000a81548173ffffffffffffffffffffffffffffffffffffffff021916908373ffffffffffffffffffffffffffffffffffffffff1602179055508173ffffffffffffffffffffffffffffffffffffffff168173ffffffffffffffffffffffffffffffffffffffff167f8be0079c531659141344cd1fd0a4f28419497f9722a3daafe3b4186f6b6457e060405160405180910390a35050565b50805460008255906000526020600020908101906115a8919061164b565b50565b82805482825590600052602060002090810192821561163a579160200282015b8281111561163957823573ffffffffffffffffffffffffffffffffffffffff168260006101000a81548173ffffffffffffffffffffffffffffffffffffffff021916908373ffffffffffffffffffffffffffffffffffffffff160217905550916020019190600101906115cb565b5b509050611647919061164b565b5090565b5b8082111561166457600081600090555060010161164c565b5090565b600080fd5b600080fd5b600073ffffffffffffffffffffffffffffffffffffffff82169050919050565b600061169d82611672565b9050919050565b6116ad81611692565b81146116b857600080fd5b50565b6000813590506116ca816116a4565b92915050565b600061ffff82169050919050565b6116e7816116d0565b81146116f257600080fd5b50565b600081359050611704816116de565b92915050565b6000819050919050565b61171d8161170a565b811461172857600080fd5b50565b60008135905061173a81611714565b92915050565b60008060006060848603121561175957611758611668565b5b6000611767868287016116bb565b9350506020611778868287016116f5565b92505060406117898682870161172b565b9150509250925092565b6000602082840312156117a9576117a8611668565b5b60006117b7848285016116bb565b91505092915050565b6117c981611692565b82525050565b60006020820190506117e460008301846117c0565b92915050565b600080fd5b600080fd5b600080fd5b60008083601f84011261180f5761180e6117ea565b5b8235905067ffffffffffffffff81111561182c5761182b6117ef565b5b602083019150836020820283011115611848576118476117f4565b5b9250929050565b6000806020838503121561186657611865611668565b5b600083013567ffffffffffffffff8111156118845761188361166d565b5b611890858286016117f9565b92509250509250929050565b60008083601f8401126118b2576118b16117ea565b5b8235905067ffffffffffffffff8111156118cf576118ce6117ef565b5b6020830191508360018202830111156118eb576118ea6117f4565b5b9250929050565b6000806000806060858703121561190c5761190b611668565b5b600061191a878288016116bb565b945050602085013567ffffffffffffffff81111561193b5761193a61166d565b5b6119478782880161189c565b9350935050604061195a8782880161172b565b91505092959194509250565b600080600080606085870312156119805761197f611668565b5b600085013567ffffffffffffffff81111561199e5761199d61166d565b5b6119aa878288016117f9565b945094505060206119bd878288016116f5565b92505060406119ce8782880161172b565b91505092959194509250565b6119e3816116d0565b82525050565b6119f28161170a565b82525050565b600081519050919050565b600082825260208201905092915050565b6000819050602082019050919050565b611a2d81611692565b82525050565b6000611a3f8383611a24565b60208301905092915050565b6000602082019050919050565b6000611a63826119f8565b611a6d8185611a03565b9350611a7883611a14565b8060005b83811015611aa9578151611a908882611a33565b9750611a9b83611a4b565b925050600181019050611a7c565b5085935050505092915050565b6000606082019050611acb60008301866119da565b611ad860208301856119e9565b8181036040830152611aea8184611a58565b9050949350505050565b600081519050919050565b600082825260208201905092915050565b60005b83811015611b2e578082015181840152602081019050611b13565b60008484015250505050565b6000601f19601f8301169050919050565b6000611b5682611af4565b611b608185611aff565b9350611b70818560208601611b10565b611b7981611b3a565b840191505092915050565b60006040820190508181036000830152611b9e8185611b4b565b9050611bad60208301846119e9565b9392505050565b7f696e76616c69642073656e646572000000000000000000000000000000000000600082015250565b6000611bea600e83611aff565b9150611bf582611bb4565b602082019050919050565b60006020820190508181036000830152611c1981611bdd565b9050919050565b7f696e76616c696420726571756573746572000000000000000000000000000000600082015250565b6000611c56601183611aff565b9150611c6182611c20565b602082019050919050565b60006020820190508181036000830152611c8581611c49565b9050919050565b7f4e487b7100000000000000000000000000000000000000000000000000000000600052603260045260246000fd5b7f6e656564206d756c7469706c6520616464726573736573000000000000000000600082015250565b6000611cf1601783611aff565b9150611cfc82611cbb565b602082019050919050565b60006020820190508181036000830152611d2081611ce4565b9050919050565b6000819050919050565b6000611d4060208401846116bb565b905092915050565b6000602082019050919050565b6000611d618385611a03565b9350611d6c82611d27565b8060005b85811015611da557611d828284611d31565b611d8c8882611a33565b9750611d9783611d48565b925050600181019050611d70565b5085925050509392505050565b60006020820190508181036000830152611dcd818486611d55565b90509392505050565b7f4e487b7100000000000000000000000000000000000000000000000000000000600052604160045260246000fd5b7f4e487b7100000000000000000000000000000000000000000000000000000000600052602260045260246000fd5b60006002820490506001821680611e4c57607f821691505b602082108103611e5f57611e5e611e05565b5b50919050565b60008190508160005260206000209050919050565b60006020601f8301049050919050565b600082821b905092915050565b600060088302611ec77fffffffffffffffffffffffffffffffffffffffffffffffffffffffffffffffff82611e8a565b611ed18683611e8a565b95508019841693508086168417925050509392505050565b6000819050919050565b6000611f0e611f09611f048461170a565b611ee9565b61170a565b9050919050565b6000819050919050565b611f2883611ef3565b611f3c611f3482611f15565b848454611e97565b825550505050565b600090565b611f51611f44565b611f5c818484611f1f565b505050565b5b81811015611f8057611f75600082611f49565b600181019050611f62565b5050565b601f821115611fc557611f9681611e65565b611f9f84611e7a565b81016020851015611fae578190505b611fc2611fba85611e7a565b830182611f61565b50505b505050565b600082821c905092915050565b6000611fe860001984600802611fca565b1980831691505092915050565b60006120018383611fd7565b9150826002028217905092915050565b61201a82611af4565b67ffffffffffffffff81111561203357612032611dd6565b5b61203d8254611e34565b612048828285611f84565b600060209050601f83116001811461207b5760008415612069578287015190505b6120738582611ff5565b8655506120db565b601f19841661208986611e65565b60005b828110156120b15784890151825560018201915060208501945060208101905061208c565b868310156120ce57848901516120ca601f891682611fd7565b8355505b6001600288020188555050505b505050505050565b600082905092915050565b6120f883836120e3565b67ffffffffffffffff81111561211157612110611dd6565b5b61211b8254611e34565b612126828285611f84565b6000601f8311600181146121555760008415612143578287013590505b61214d8582611ff5565b8655506121b5565b601f19841661216386611e65565b60005b8281101561218b57848901358255600182019150602085019450602081019050612166565b868310156121a857848901356121a4601f891682611fd7565b8355505b6001600288020188555050505b50505050505050565b7f6e6f207065726d697373696f6e00000000000000000000000000000000000000600082015250565b60006121f4600d83611aff565b91506121ff826121be565b602082019050919050565b60006020820190508181036000830152612223816121e7565b9050919050565b7f6e6f206372656469742073636f726520617661696c61626c6500000000000000600082015250565b6000612260601983611aff565b915061226b8261222a565b602082019050919050565b6000602082019050818103600083015261228f81612253565b9050919050565b7f6372656469742073636f72652068617320657870697265640000000000000000600082015250565b60006122cc601883611aff565b91506122d782612296565b602082019050919050565b600060208201905081810360008301526122fb816122bf565b9050919050565b7f4f776e61626c653a206e6577206f776e657220697320746865207a65726f206160008201527f6464726573730000000000000000000000000000000000000000000000000000602082015250565b600061235e602683611aff565b915061236982612302565b604082019050919050565b6000602082019050818103600083015261238d81612351565b9050919050565b7f6e6f20637265646974207265706f727420617661696c61626c65000000000000600082015250565b60006123ca601a83611aff565b91506123d582612394565b602082019050919050565b600060208201905081810360008301526123f9816123bd565b9050919050565b7f637265646974207265706f727420686173206578706972656400000000000000600082015250565b6000612436601983611aff565b915061244182612400565b602082019050919050565b6000602082019050818103600083015261246581612429565b9050919050565b7f4f776e61626c653a2063616c6c6572206973206e6f7420746865206f776e6572600082015250565b60006124a2602083611aff565b91506124ad8261246c565b602082019050919050565b600060208201905081810360008301526124d181612495565b905091905056fea2646970667358221220f59a15d2e9942e03c32835899058e803f52b5a08e412573cd83d4699c7b29c4d64736f6c63430008110033",
  "linkReferences": {},
  "deployedLinkReferences": {}
}