{
  "_format": "hh-sol-artifact-1",
  "contractName": "Disclosure",
  "sourceName": "contracts/disclosure.sol",
  "abi": [
    {
      "inputs": [
        {
          "internalType": "address",
          "name": "endpoint",
          "type": "address"
        },
        {
          "internalType": "address",
          "name": "remote",
          "type": "address"
        }
      ],
      "stateMutability": "nonpayable",
      "type": "constructor"
    },
    {
      "inputs": [],
      "name": "AutoConfigUnavailable",
      "type": "error"
    },
    {
      "inputs": [],
      "name": "MissingRemoteAddr",
      "type": "error"
    },
    {
      "inputs": [],
      "name": "MissingRemoteChainId",
      "type": "error"
    },
    {
      "inputs": [],
      "name": "NotMessageBus",
      "type": "error"
    },
    {
      "inputs": [],
      "name": "NotRemoteEndpoint",
      "type": "error"
    },
    {
      "inputs": [],
      "name": "SelfCallDisallowed",
      "type": "error"
    },
    {
      "inputs": [
        {
          "internalType": "uint256",
          "name": "expected",
          "type": "uint256"
        },
        {
          "internalType": "uint256",
          "name": "got",
          "type": "uint256"
        }
      ],
      "name": "WrongSeqNum",
      "type": "error"
    },
    {
      "inputs": [],
      "name": "ACCESS_CREDIT_SCORE",
      "outputs": [
        {
          "internalType": "Disclosure.Access",
          "name": "",
          "type": "uint256"
        }
      ],
      "stateMutability": "view",
      "type": "function"
    },
    {
      "inputs": [],
      "name": "ACCESS_FULL_CREDIT_REPORT",
      "outputs": [
        {
          "internalType": "Disclosure.Access",
          "name": "",
          "type": "uint256"
        }
      ],
      "stateMutability": "view",
      "type": "function"
    },
    {
      "inputs": [
        {
          "internalType": "address",
          "name": "_whom",
          "type": "address"
        }
      ],
      "name": "accessCreditScore",
      "outputs": [
        {
          "internalType": "uint16",
          "name": "",
          "type": "uint16"
        },
        {
          "internalType": "uint256",
          "name": "",
          "type": "uint256"
        },
        {
          "internalType": "address[]",
          "name": "",
          "type": "address[]"
        }
      ],
      "stateMutability": "view",
      "type": "function"
    },
    {
      "inputs": [
        {
          "internalType": "address",
          "name": "_whom",
          "type": "address"
        }
      ],
      "name": "accessFullCreditReport",
      "outputs": [
        {
          "internalType": "string",
          "name": "",
          "type": "string"
        },
        {
          "internalType": "uint256",
          "name": "",
          "type": "uint256"
        }
      ],
      "stateMutability": "view",
      "type": "function"
    },
    {
      "inputs": [],
      "name": "creditEndpoint",
      "outputs": [
        {
          "internalType": "contract CreditData",
          "name": "",
          "type": "address"
        }
      ],
      "stateMutability": "view",
      "type": "function"
    },
    {
      "inputs": [
        {
          "internalType": "address",
          "name": "_sender",
          "type": "address"
        },
        {
          "internalType": "uint64",
          "name": "_senderChainId",
          "type": "uint64"
        },
        {
          "internalType": "bytes",
          "name": "_message",
          "type": "bytes"
        },
        {
          "internalType": "address",
          "name": "",
          "type": "address"
        }
      ],
      "name": "executeMessage",
      "outputs": [
        {
          "internalType": "uint256",
          "name": "",
          "type": "uint256"
        }
      ],
      "stateMutability": "payable",
      "type": "function"
    },
    {
      "inputs": [
        {
          "internalType": "address",
          "name": "_whom",
          "type": "address"
        },
        {
          "internalType": "Disclosure.Access",
          "name": "_accessType",
          "type": "uint256"
        }
      ],
      "name": "grantAccess",
      "outputs": [],
      "stateMutability": "nonpayable",
      "type": "function"
    },
    {
      "inputs": [
        {
          "internalType": "address",
          "name": "_whom",
          "type": "address"
        },
        {
          "internalType": "Disclosure.Access",
          "name": "_accessType",
          "type": "uint256"
        }
      ],
      "name": "hasAccess",
      "outputs": [
        {
          "internalType": "bool",
          "name": "",
          "type": "bool"
        }
      ],
      "stateMutability": "view",
      "type": "function"
    },
    {
      "inputs": [
        {
          "internalType": "address",
          "name": "forwarder",
          "type": "address"
        }
      ],
      "name": "isTrustedForwarder",
      "outputs": [
        {
          "internalType": "bool",
          "name": "",
          "type": "bool"
        }
      ],
      "stateMutability": "view",
      "type": "function"
    },
    {
      "inputs": [
        {
          "internalType": "address",
          "name": "_whom",
          "type": "address"
        }
      ],
      "name": "revokeAccess",
      "outputs": [],
      "stateMutability": "nonpayable",
      "type": "function"
    }
  ],
  "bytecode": "0x6101006040523480156200001257600080fd5b5060405162003047380380620030478339818101604052810190620000389190620011ba565b806200006a7f706f6c79676f6e000000000000000000000000000000000000000000000000006200034160201b60201c565b615aff46146200007c5760006200007f565b60005b8282816200009382620006b860201b60201c565b620000a584846200070460201b60201c565b60008073ffffffffffffffffffffffffffffffffffffffff168473ffffffffffffffffffffffffffffffffffffffff16036200010d576040517f5f9997df00000000000000000000000000000000000000000000000000000000815260040160405180910390fd5b6000830362000148576040517fa9e2223000000000000000000000000000000000000000000000000000000000815260040160405180910390fd5b836000806101000a81548173ffffffffffffffffffffffffffffffffffffffff021916908373ffffffffffffffffffffffffffffffffffffffff160217905550826001819055508173ffffffffffffffffffffffffffffffffffffffff1660808173ffffffffffffffffffffffffffffffffffffffff168152505080151560a081151581525050620001df6200075860201b60201c565b158015620001ec57504683145b1562000224576040517fdbf02d7c00000000000000000000000000000000000000000000000000000000815260040160405180910390fd5b5050505050508073ffffffffffffffffffffffffffffffffffffffff1660c08173ffffffffffffffffffffffffffffffffffffffff16815250505050508173ffffffffffffffffffffffffffffffffffffffff1660e08173ffffffffffffffffffffffffffffffffffffffff1681525050620002e76040518060400160405280600b81526020017f6772616e74416363657373000000000000000000000000000000000000000000815250620007bf60201b62000bb8176200095960201b60201c565b620003396040518060400160405280600c81526020017f7265766f6b654163636573730000000000000000000000000000000000000000815250620009bd60201b62000d4d176200095960201b60201c565b505062001419565b6000610539461480620003555750617a6946145b1562000384577f6c6f63616c0000000000000000000000000000000000000000000000000000009050620006b3565b6000620003974662000ad660201b60201c565b915050801562000663577f657468657265756d0000000000000000000000000000000000000000000000008303620003f3577f676f65726c690000000000000000000000000000000000000000000000000000915050620006b3565b7f6273630000000000000000000000000000000000000000000000000000000000830362000445577f6273632d746573746e6574000000000000000000000000000000000000000000915050620006b3565b7f706f6c79676f6e00000000000000000000000000000000000000000000000000830362000497577f706f6c79676f6e2d6d756d626169000000000000000000000000000000000000915050620006b3565b7f66616e746f6d00000000000000000000000000000000000000000000000000008303620004e9577f66616e746f6d2d746573746e6574000000000000000000000000000000000000915050620006b3565b7f736170706869726500000000000000000000000000000000000000000000000083036200053b577f73617070686972652d746573746e657400000000000000000000000000000000915050620006b3565b7f617262697472756d2d6f6e65000000000000000000000000000000000000000083036200058d577f617262697472756d2d746573746e657400000000000000000000000000000000915050620006b3565b7f617262697472756d2d6e6f7661000000000000000000000000000000000000008303620005df577f617262697472756d2d746573746e657400000000000000000000000000000000915050620006b3565b7f6176616c616e6368650000000000000000000000000000000000000000000000830362000631577f6176616c616e6368652d66756a69000000000000000000000000000000000000915050620006b3565b6040517f11e9f92400000000000000000000000000000000000000000000000000000000815260040160405180910390fd5b6000620006768462000de660201b60201c565b03620006ae576040517f11e9f92400000000000000000000000000000000000000000000000000000000815260040160405180910390fd5b829150505b919050565b60007f6c6f63616c0000000000000000000000000000000000000000000000000000008203620006eb57469050620006ff565b620006fc8262000de660201b60201c565b90505b919050565b60007f6c6f63616c0000000000000000000000000000000000000000000000000000008203620007375782905062000752565b60006200074a4662000ad660201b60201c565b509050809150505b92915050565b60008060009054906101000a900473ffffffffffffffffffffffffffffffffffffffff1673ffffffffffffffffffffffffffffffffffffffff1660805173ffffffffffffffffffffffffffffffffffffffff16148015620007ba575060015446145b905090565b6000806000808585810190620007d6919062001281565b9250925092508273ffffffffffffffffffffffffffffffffffffffff168273ffffffffffffffffffffffffffffffffffffffff16036200084d576040517f08c379a000000000000000000000000000000000000000000000000000000000815260040162000844906200133e565b60405180910390fd5b80600560008573ffffffffffffffffffffffffffffffffffffffff1673ffffffffffffffffffffffffffffffffffffffff16815260200190815260200160002060008473ffffffffffffffffffffffffffffffffffffffff1673ffffffffffffffffffffffffffffffffffffffff1681526020019081526020016000205417600560008573ffffffffffffffffffffffffffffffffffffffff1673ffffffffffffffffffffffffffffffffffffffff16815260200190815260200160002060008473ffffffffffffffffffffffffffffffffffffffff1673ffffffffffffffffffffffffffffffffffffffff168152602001908152602001600020819055506002935050505092915050565b806002600084805190602001207bffffffffffffffffffffffffffffffffffffffffffffffffffffffff1916815260200190815260200160002060006101000a81548167ffffffffffffffff021916908367ffffffffffffffff1602179055505050565b60008060008484810190620009d3919062001360565b915091508173ffffffffffffffffffffffffffffffffffffffff168173ffffffffffffffffffffffffffffffffffffffff160362000a48576040517f08c379a000000000000000000000000000000000000000000000000000000000815260040162000a3f90620013f7565b60405180910390fd5b6000600560008473ffffffffffffffffffffffffffffffffffffffff1673ffffffffffffffffffffffffffffffffffffffff16815260200190815260200160002060008373ffffffffffffffffffffffffffffffffffffffff1673ffffffffffffffffffffffffffffffffffffffff1681526020019081526020016000208190555060029250505092915050565b6000806001830362000b0357734066d196a423b2b3b8b054f4f40efb47a74e200c60009150915062000de1565b6005830362000b2d5773f25170f86e4291a99a9a560032fe9948b8bcfbb260019150915062000de1565b600a830362000b5757730d71d18126e03646eb09fec929e2ae87b7cae69d60009150915062000de1565b6038830362000b81577395714818fdd7a5454f73da9c777b3ee6ebaeea6b60009150915062000de1565b6061830362000bab5773ad204986d6cb67a5bc76a3cb8974823f43cb9aaa60019150915062000de1565b6089830362000bd55773afdb9c40c7144022811f034ee07ce2e110093fe660009150915062000de1565b60fa830362000bff5773ff4e183a0ceb4fa98e63bbf8077b929c8e5a2ba460009150915062000de1565b610fa2830362000c2a5773b92d6933a024bcca9a21669a480c236cbc97311060019150915062000de1565b610505830362000c555773940daaba3f713abfabd79cdd991466fe698cbe5460009150915062000de1565b615afe830362000c8057739bb46d5100d2db4608112026951c9c965b233f4d60009150915062000de1565b615aff830362000cab57739bb46d5100d2db4608112026951c9c965b233f4d60019150915062000de1565b61a4b1830362000cd657733ad9d0648cdaa2426331e894e980d0a5ed16257f60009150915062000de1565b61a4ba830362000d015773f5c6825015280cdfd0b56903f9f8b5a2233476f560009150915062000de1565b61a869830362000d2c5773e9533976c590200e32d95c53f06ae12d292cfc4760019150915062000de1565b61a86a830362000d5757735a926eeeafc4d217add17e9641e8ce23cd01ad5760009150915062000de1565b62013881830362000d8357737d43aabc515c356145049227cee54b608342c0ad60019150915062000de1565b62066eeb830362000daf57737d43aabc515c356145049227cee54b608342c0ad60019150915062000de1565b6040517f11e9f92400000000000000000000000000000000000000000000000000000000815260040160405180910390fd5b915091565b60007f657468657265756d000000000000000000000000000000000000000000000000820362000e1a57600190506200114b565b7f676f65726c690000000000000000000000000000000000000000000000000000820362000e4c57600590506200114b565b7f6f7074696d69736d000000000000000000000000000000000000000000000000820362000e7e57600a90506200114b565b7f6273630000000000000000000000000000000000000000000000000000000000820362000eb057603890506200114b565b7f6273632d746573746e6574000000000000000000000000000000000000000000820362000ee257606190506200114b565b7f706f6c79676f6e00000000000000000000000000000000000000000000000000820362000f1457608990506200114b565b7f66616e746f6d0000000000000000000000000000000000000000000000000000820362000f465760fa90506200114b565b7f66616e746f6d2d746573746e6574000000000000000000000000000000000000820362000f7957610fa290506200114b565b7f6d6f6f6e72697665720000000000000000000000000000000000000000000000820362000fac5761050590506200114b565b7f617262697472756d2d6f6e650000000000000000000000000000000000000000820362000fdf5761a4b190506200114b565b7f617262697472756d2d6e6f7661000000000000000000000000000000000000008203620010125761a4ba90506200114b565b7f736170706869726500000000000000000000000000000000000000000000000082036200104557615afe90506200114b565b7f73617070686972652d746573746e65740000000000000000000000000000000082036200107857615aff90506200114b565b7f706f6c79676f6e2d6d756d6261690000000000000000000000000000000000008203620010ac576201388190506200114b565b7f6176616c616e63686500000000000000000000000000000000000000000000008203620010df5761a86a90506200114b565b7f6176616c616e6368652d66756a690000000000000000000000000000000000008203620011125761a93190506200114b565b7f617262697472756d2d746573746e6574000000000000000000000000000000008203620011465762066eeb90506200114b565b600090505b919050565b600080fd5b600073ffffffffffffffffffffffffffffffffffffffff82169050919050565b6000620011828262001155565b9050919050565b620011948162001175565b8114620011a057600080fd5b50565b600081519050620011b48162001189565b92915050565b60008060408385031215620011d457620011d362001150565b5b6000620011e485828601620011a3565b9250506020620011f785828601620011a3565b9150509250929050565b60006200120e8262001155565b9050919050565b620012208162001201565b81146200122c57600080fd5b50565b600081359050620012408162001215565b92915050565b6000819050919050565b6200125b8162001246565b81146200126757600080fd5b50565b6000813590506200127b8162001250565b92915050565b6000806000606084860312156200129d576200129c62001150565b5b6000620012ad868287016200122f565b9350506020620012c0868287016200122f565b9250506040620012d3868287016200126a565b9150509250925092565b600082825260208201905092915050565b7f6e6f206e65656420746f206772616e742061636365737320746f2073656c6600600082015250565b600062001326601f83620012dd565b91506200133382620012ee565b602082019050919050565b60006020820190508181036000830152620013598162001317565b9050919050565b600080604083850312156200137a576200137962001150565b5b60006200138a858286016200122f565b92505060206200139d858286016200122f565b9150509250929050565b7f63616e6e6f74207265766f6b652061636365737320746f2073656c6600000000600082015250565b6000620013df601c83620012dd565b9150620013ec82620013a7565b602082019050919050565b600060208201905081810360008301526200141281620013d0565b9050919050565b60805160a05160c05160e051611be662001461600039600081816102e20152818161038c0152610b0c015260006103b701526000610696015260006105100152611be66000f3fe6080604052600436106100915760003560e01c80639c649fdf116100595780639c649fdf146101905780639df89256146101c0578063bc25aa2f146101e9578063c6530e4114610214578063e4bc47e01461025157610091565b8063320abdfb146100965780634051d45b146100d45780634f11ce91146100ff578063572b6c051461012a57806385e6853114610167575b600080fd5b3480156100a257600080fd5b506100bd60048036038101906100b89190610f37565b610290565b6040516100cb92919061100d565b60405180910390f35b3480156100e057600080fd5b506100e961038a565b6040516100f6919061109c565b60405180910390f35b34801561010b57600080fd5b506101146103ae565b60405161012191906110e8565b60405180910390f35b34801561013657600080fd5b50610151600480360381019061014c9190610f37565b6103b3565b60405161015e919061111e565b60405180910390f35b34801561017357600080fd5b5061018e60048036038101906101899190610f37565b61040b565b005b6101aa60048036038101906101a591906111de565b61050c565b6040516101b79190611266565b60405180910390f35b3480156101cc57600080fd5b506101e760048036038101906101e291906112ad565b61085f565b005b3480156101f557600080fd5b506101fe6109e5565b60405161020b91906110e8565b60405180910390f35b34801561022057600080fd5b5061023b600480360381019061023691906112ad565b6109ea565b604051610248919061111e565b60405180910390f35b34801561025d57600080fd5b5061027860048036038101906102739190610f37565b610ab9565b604051610287939291906113c8565b60405180910390f35b606060008260026102a182826109ea565b6102e0576040517f08c379a00000000000000000000000000000000000000000000000000000000081526004016102d790611452565b60405180910390fd5b7f000000000000000000000000000000000000000000000000000000000000000073ffffffffffffffffffffffffffffffffffffffff1663fd94ab3d866040518263ffffffff1660e01b81526004016103399190611481565b600060405180830381865afa158015610356573d6000803e3d6000fd5b505050506040513d6000823e3d601f19601f8201168201806040525081019061037f91906115e9565b935093505050915091565b7f000000000000000000000000000000000000000000000000000000000000000081565b600281565b60007f000000000000000000000000000000000000000000000000000000000000000073ffffffffffffffffffffffffffffffffffffffff168273ffffffffffffffffffffffffffffffffffffffff16149050919050565b610413610e61565b73ffffffffffffffffffffffffffffffffffffffff168173ffffffffffffffffffffffffffffffffffffffff1603610480576040517f08c379a000000000000000000000000000000000000000000000000000000000815260040161047790611691565b60405180910390fd5b60006005600061048e610e61565b73ffffffffffffffffffffffffffffffffffffffff1673ffffffffffffffffffffffffffffffffffffffff16815260200190815260200160002060008373ffffffffffffffffffffffffffffffffffffffff1673ffffffffffffffffffffffffffffffffffffffff1681526020019081526020016000208190555050565b60007f000000000000000000000000000000000000000000000000000000000000000073ffffffffffffffffffffffffffffffffffffffff163373ffffffffffffffffffffffffffffffffffffffff1614610593576040517f663f343200000000000000000000000000000000000000000000000000000000815260040160405180910390fd5b60008054906101000a900473ffffffffffffffffffffffffffffffffffffffff1673ffffffffffffffffffffffffffffffffffffffff168673ffffffffffffffffffffffffffffffffffffffff161415806105fa57506001548567ffffffffffffffff1614155b15610631576040517f6e3ae14500000000000000000000000000000000000000000000000000000000815260040160405180910390fd5b60008484600090600492610647939291906116bb565b90610652919061173a565b90506000858560049060249261066a939291906116bb565b9061067591906117a3565b60001c905036600087876024908092610690939291906116bb565b915091507f00000000000000000000000000000000000000000000000000000000000000001561071b57600454831461070457600454836040517fd0257bb10000000000000000000000000000000000000000000000000000000081526004016106fb929190611802565b60405180910390fd5b6004600081546107139061185a565b919050819055505b610ebb60026000867bffffffffffffffffffffffffffffffffffffffffffffffffffffffff1916815260200190815260200160002060009054906101000a90048015610ebb021767ffffffffffffffff16905060008115905060006107d18585600260008b7bffffffffffffffffffffffffffffffffffffffffffffffffffffffff1916815260200190815260200160002060009054906101000a90048015610ebb021767ffffffffffffffff1663ffffffff16565b9050600160028111156107e7576107e66118a2565b5b8160028111156107fa576107f96118a2565b5b0361080f576002975050505050505050610856565b600280811115610822576108216118a2565b5b816002811115610835576108346118a2565b5b0361084a576001975050505050505050610856565b60009750505050505050505b95945050505050565b610867610e61565b73ffffffffffffffffffffffffffffffffffffffff168273ffffffffffffffffffffffffffffffffffffffff16036108d4576040517f08c379a00000000000000000000000000000000000000000000000000000000081526004016108cb9061191d565b60405180910390fd5b80600560006108e1610e61565b73ffffffffffffffffffffffffffffffffffffffff1673ffffffffffffffffffffffffffffffffffffffff16815260200190815260200160002060008473ffffffffffffffffffffffffffffffffffffffff1673ffffffffffffffffffffffffffffffffffffffff168152602001908152602001600020541760056000610966610e61565b73ffffffffffffffffffffffffffffffffffffffff1673ffffffffffffffffffffffffffffffffffffffff16815260200190815260200160002060008473ffffffffffffffffffffffffffffffffffffffff1673ffffffffffffffffffffffffffffffffffffffff168152602001908152602001600020819055505050565b600181565b60006109f4610e61565b73ffffffffffffffffffffffffffffffffffffffff168373ffffffffffffffffffffffffffffffffffffffff161480610ab157508182600560008673ffffffffffffffffffffffffffffffffffffffff1673ffffffffffffffffffffffffffffffffffffffff1681526020019081526020016000206000610a73610e61565b73ffffffffffffffffffffffffffffffffffffffff1673ffffffffffffffffffffffffffffffffffffffff1681526020019081526020016000205416145b905092915050565b6000806060836001610acb82826109ea565b610b0a576040517f08c379a0000000000000000000000000000000000000000000000000000000008152600401610b0190611452565b60405180910390fd5b7f000000000000000000000000000000000000000000000000000000000000000073ffffffffffffffffffffffffffffffffffffffff1663d3dd2bdf876040518263ffffffff1660e01b8152600401610b639190611481565b600060405180830381865afa158015610b80573d6000803e3d6000fd5b505050506040513d6000823e3d601f19601f82011682018060405250810190610ba99190611a41565b94509450945050509193909250565b6000806000808585810190610bcd9190611aee565b9250925092508273ffffffffffffffffffffffffffffffffffffffff168273ffffffffffffffffffffffffffffffffffffffff1603610c41576040517f08c379a0000000000000000000000000000000000000000000000000000000008152600401610c389061191d565b60405180910390fd5b80600560008573ffffffffffffffffffffffffffffffffffffffff1673ffffffffffffffffffffffffffffffffffffffff16815260200190815260200160002060008473ffffffffffffffffffffffffffffffffffffffff1673ffffffffffffffffffffffffffffffffffffffff1681526020019081526020016000205417600560008573ffffffffffffffffffffffffffffffffffffffff1673ffffffffffffffffffffffffffffffffffffffff16815260200190815260200160002060008473ffffffffffffffffffffffffffffffffffffffff1673ffffffffffffffffffffffffffffffffffffffff168152602001908152602001600020819055506002935050505092915050565b60008060008484810190610d619190611b41565b915091508173ffffffffffffffffffffffffffffffffffffffff168173ffffffffffffffffffffffffffffffffffffffff1603610dd3576040517f08c379a0000000000000000000000000000000000000000000000000000000008152600401610dca90611691565b60405180910390fd5b6000600560008473ffffffffffffffffffffffffffffffffffffffff1673ffffffffffffffffffffffffffffffffffffffff16815260200190815260200160002060008373ffffffffffffffffffffffffffffffffffffffff1673ffffffffffffffffffffffffffffffffffffffff1681526020019081526020016000208190555060029250505092915050565b6000610e6b610e70565b905090565b6000610e7b336103b3565b8015610e8c57506014600036905010155b15610ea057601436033560601c9050610eaf565b610ea8610eb3565b9050610eb0565b5b90565b600033905090565b610ec3611b81565b565b6000604051905090565b600080fd5b600080fd5b600073ffffffffffffffffffffffffffffffffffffffff82169050919050565b6000610f0482610ed9565b9050919050565b610f1481610ef9565b8114610f1f57600080fd5b50565b600081359050610f3181610f0b565b92915050565b600060208284031215610f4d57610f4c610ecf565b5b6000610f5b84828501610f22565b91505092915050565b600081519050919050565b600082825260208201905092915050565b60005b83811015610f9e578082015181840152602081019050610f83565b60008484015250505050565b6000601f19601f8301169050919050565b6000610fc682610f64565b610fd08185610f6f565b9350610fe0818560208601610f80565b610fe981610faa565b840191505092915050565b6000819050919050565b61100781610ff4565b82525050565b600060408201905081810360008301526110278185610fbb565b90506110366020830184610ffe565b9392505050565b6000819050919050565b600061106261105d61105884610ed9565b61103d565b610ed9565b9050919050565b600061107482611047565b9050919050565b600061108682611069565b9050919050565b6110968161107b565b82525050565b60006020820190506110b1600083018461108d565b92915050565b60006110d26110cd6110c884610ff4565b61103d565b610ff4565b9050919050565b6110e2816110b7565b82525050565b60006020820190506110fd60008301846110d9565b92915050565b60008115159050919050565b61111881611103565b82525050565b6000602082019050611133600083018461110f565b92915050565b600067ffffffffffffffff82169050919050565b61115681611139565b811461116157600080fd5b50565b6000813590506111738161114d565b92915050565b600080fd5b600080fd5b600080fd5b60008083601f84011261119e5761119d611179565b5b8235905067ffffffffffffffff8111156111bb576111ba61117e565b5b6020830191508360018202830111156111d7576111d6611183565b5b9250929050565b6000806000806000608086880312156111fa576111f9610ecf565b5b600061120888828901610f22565b955050602061121988828901611164565b945050604086013567ffffffffffffffff81111561123a57611239610ed4565b5b61124688828901611188565b9350935050606061125988828901610f22565b9150509295509295909350565b600060208201905061127b6000830184610ffe565b92915050565b61128a81610ff4565b811461129557600080fd5b50565b6000813590506112a781611281565b92915050565b600080604083850312156112c4576112c3610ecf565b5b60006112d285828601610f22565b92505060206112e385828601611298565b9150509250929050565b600061ffff82169050919050565b611304816112ed565b82525050565b600081519050919050565b600082825260208201905092915050565b6000819050602082019050919050565b61133f81610ef9565b82525050565b60006113518383611336565b60208301905092915050565b6000602082019050919050565b60006113758261130a565b61137f8185611315565b935061138a83611326565b8060005b838110156113bb5781516113a28882611345565b97506113ad8361135d565b92505060018101905061138e565b5085935050505092915050565b60006060820190506113dd60008301866112fb565b6113ea6020830185610ffe565b81810360408301526113fc818461136a565b9050949350505050565b7f7065726d697373696f6e2064656e696564000000000000000000000000000000600082015250565b600061143c601183610f6f565b915061144782611406565b602082019050919050565b6000602082019050818103600083015261146b8161142f565b9050919050565b61147b81610ef9565b82525050565b60006020820190506114966000830184611472565b92915050565b600080fd5b7f4e487b7100000000000000000000000000000000000000000000000000000000600052604160045260246000fd5b6114d982610faa565b810181811067ffffffffffffffff821117156114f8576114f76114a1565b5b80604052505050565b600061150b610ec5565b905061151782826114d0565b919050565b600067ffffffffffffffff821115611537576115366114a1565b5b61154082610faa565b9050602081019050919050565b600061156061155b8461151c565b611501565b90508281526020810184848401111561157c5761157b61149c565b5b611587848285610f80565b509392505050565b600082601f8301126115a4576115a3611179565b5b81516115b484826020860161154d565b91505092915050565b6115c681610ff4565b81146115d157600080fd5b50565b6000815190506115e3816115bd565b92915050565b60008060408385031215611600576115ff610ecf565b5b600083015167ffffffffffffffff81111561161e5761161d610ed4565b5b61162a8582860161158f565b925050602061163b858286016115d4565b9150509250929050565b7f63616e6e6f74207265766f6b652061636365737320746f2073656c6600000000600082015250565b600061167b601c83610f6f565b915061168682611645565b602082019050919050565b600060208201905081810360008301526116aa8161166e565b9050919050565b600080fd5b600080fd5b600080858511156116cf576116ce6116b1565b5b838611156116e0576116df6116b6565b5b6001850283019150848603905094509492505050565b600082905092915050565b60007fffffffff0000000000000000000000000000000000000000000000000000000082169050919050565b600082821b905092915050565b600061174683836116f6565b826117518135611701565b925060048210156117915761178c7fffffffff000000000000000000000000000000000000000000000000000000008360040360080261172d565b831692505b505092915050565b6000819050919050565b60006117af83836116f6565b826117ba8135611799565b925060208210156117fa576117f57fffffffffffffffffffffffffffffffffffffffffffffffffffffffffffffffff8360200360080261172d565b831692505b505092915050565b60006040820190506118176000830185610ffe565b6118246020830184610ffe565b9392505050565b7f4e487b7100000000000000000000000000000000000000000000000000000000600052601160045260246000fd5b600061186582610ff4565b91507fffffffffffffffffffffffffffffffffffffffffffffffffffffffffffffffff82036118975761189661182b565b5b600182019050919050565b7f4e487b7100000000000000000000000000000000000000000000000000000000600052602160045260246000fd5b7f6e6f206e65656420746f206772616e742061636365737320746f2073656c6600600082015250565b6000611907601f83610f6f565b9150611912826118d1565b602082019050919050565b60006020820190508181036000830152611936816118fa565b9050919050565b611946816112ed565b811461195157600080fd5b50565b6000815190506119638161193d565b92915050565b600067ffffffffffffffff821115611984576119836114a1565b5b602082029050602081019050919050565b6000815190506119a481610f0b565b92915050565b60006119bd6119b884611969565b611501565b905080838252602082019050602084028301858111156119e0576119df611183565b5b835b81811015611a0957806119f58882611995565b8452602084019350506020810190506119e2565b5050509392505050565b600082601f830112611a2857611a27611179565b5b8151611a388482602086016119aa565b91505092915050565b600080600060608486031215611a5a57611a59610ecf565b5b6000611a6886828701611954565b9350506020611a79868287016115d4565b925050604084015167ffffffffffffffff811115611a9a57611a99610ed4565b5b611aa686828701611a13565b9150509250925092565b6000611abb82610ed9565b9050919050565b611acb81611ab0565b8114611ad657600080fd5b50565b600081359050611ae881611ac2565b92915050565b600080600060608486031215611b0757611b06610ecf565b5b6000611b1586828701611ad9565b9350506020611b2686828701611ad9565b9250506040611b3786828701611298565b9150509250925092565b60008060408385031215611b5857611b57610ecf565b5b6000611b6685828601611ad9565b9250506020611b7785828601611ad9565b9150509250929050565b7f4e487b7100000000000000000000000000000000000000000000000000000000600052605160045260246000fdfea2646970667358221220fa0686186b1bf350d2932deb94413de6d4a05aeff1621306fc95e60fa7837c7064736f6c63430008110033",
  "linkReferences": {},
  "deployedLinkReferences": {}
}